:020000040800F2
:1000000020060020010100088F150008D513000804
:100010008D150008BD0100087519000800000000DA
:100020000000000000000000000000009315000820
:10003000BF01000800000000911500089515000898
:100040001B0100081B0100081B0100081B01000820
:100050001B0100081B0100081B0100081B01000810
:100060001B0100081B0100081B0100081B01000800
:100070001B0100081B0100081B0100081B010008F0
:100080001B0100081B0100081B0100081B010008E0
:100090001B0100081B0100081B0100081B010008D0
:1000A00055160008791600086D160008611600083C
:1000B000851600081B0100081B0100081B01000831
:1000C0001B0100081B0100081B0100081B010008A0
:1000D0001B0100083D190008591900081B01000800
:1000E0001B0100081B0100081B010008DFF80CD0F1
:1000F00000F052F800480047A91B00082006002025
:100100000648804706480047FEE7FEE7FEE7FEE7B1
:10011000FEE7FEE7FEE7FEE7FEE7FEE7F51500086F
:10012000ED00000840EA01039B0703D009E008C97D
:10013000121F08C0042AFAD203E011F8013B00F8AC
:10014000013B521EF9D27047D2B201E000F8012BF8
:10015000491EFBD270470022F6E710B513460A4647
:1001600004461946FFF7F0FF204610BD30B50B4698
:10017000014600202022012409E021FA02F59D42D7
:1001800005D303FA02F5491B04FA02F52844151EAB
:10019000A2F10102F1DC30BD064C074D06E0E0683B
:1001A00040F0010394E8070098471034AC42F6D3BE
:1001B000FFF7A0FF741C0008941C0008FEE77047BE
:1001C00072B6FEE7016882B009680A68D20608D5EF
:1001D0000A68496800910121C17303A002B001F0CF
:1001E000CBBB02B0704700002323232323232372B9
:1001F000656365697665643269646C6523232323CE
:100200000D0A00002DE9F0479946174604460A25D5
:100210000E46DDF8208000F020F84FF6FF733A46D6
:100220003146206801F07CF812E0E07B68B1A189DA
:10023000A8F80010A2894846A168FFF773FF20467E
:1002400000F00BF80120BDE8F0870A2000F08EF8DE
:1002500028466D1EEDB2E8D2F5E710B5044630F839
:100260000C1FFFF778FF0020A081E07310BD000095
:1002700038B50446012903D0022903D0002038BD37
:100280000B4800E00B482060C4E90132012204F170
:100290000E0100F0DDFF20680068C16841F0100128
:1002A000C16020680068016840680090012038BD86
:1002B000B4000020F4000020012805D0022801D05D
:1002C000002070470248704701481038704700000E
:1002D0004401002010B590F821100024022903D019
:1002E0000421816301243DE001680A6822F00E02C6
:1002F0000A6001680A6822F001020A601A4A01686D
:10030000914201D1012121E0174A1432914201D1D9
:1003100010211BE0144A2832914201D1891515E0C1
:10032000114A3C32914201D189140FE00E4A5032F9
:10033000914202D14FF4803108E00B4A643291427D
:1003400002D14FF4801101E04FF08071064A083A63
:100350005160012180F82110002180F82010416BAC
:1003600001B18847204610BD0800024070B5044620
:1003700000F00CF90546601C02D0044800780444E3
:1003800000F004F9401BA042FAD370BD0800002021
:100390002DE9F84FDFF8B891002409F1040A0AF1B9
:1003A000040B23460F270BF1040EC9E00125A540DD
:1003B0002A40AA427DD1674ED1F804C0ACEB0608B2
:1003C000B44532D014DCBCF1030F3AD009DCBCF1E7
:1003D000000F2AD0BCF1010F1CD0BCF1020F31D1AB
:1003E0001DE0BCF1110F17D0BCF1120F2AD119E09A
:1003F000B8F5881F19D006DCB8F5803F15D0B8F5E0
:10040000801F1FD111E0B8F5001F0ED0B8F5041FF2
:1004100018D10AE0CB6815E0CB681B1D12E0CB6851
:1004200008330FE0CB680C330CE08B682BB1012B49
:100430004FF0080303D0456104E0042302E00561A6
:1004400000E00023FF2A01D8064601E000F104067F
:100450004FEA840501D9A5F12005D6F8008007FAF6
:1004600005FC28EA0C0803FA05F548EA0508C6F871
:1004700000804D68ED0062D5374DAE6946F001064B
:10048000AE61AD6924F0030605F001050095334D1A
:1004900006EB050CDCF80850A607360F07FA06F83D
:1004A00025EA0805DFF8B880404503D14FF0000881
:1004B00017E044E0DFF8AC80404502D14FF001087E
:1004C0000FE0DFF8A480404502D14FF0020808E0B9
:1004D000DFF89880404502D14FF0030801E04FF06B
:1004E000040808FA06F848EA0508CCF808804D68C0
:1004F000D9F80060ED034D4601D5164300E0964360
:100500002E604D68DAF80060AD03554601D51643FC
:1005100000E096432E604D68DBF80060ED025D461A
:1005200001D5164300E096432E604D68DEF800606A
:10053000AD02754601D5164300E096432E60641C5B
:100540000D682A46E5407FF431AFBDE8F88F000022
:1005500000040140000011100010024000000140A2
:1005600000080140000C014000100140001401404F
:10057000C26821EA02030A4043EA0241016170476E
:100580000AB1016170470904FBE700000148806877
:10059000704700000800002002488168027811447A
:1005A0008160704708000020074810B5016841F0DD
:1005B00010010160032000F075F8002000F006F83B
:1005C00000F024F8002010BD0020024070B50D4D51
:1005D00004464FF47A712878B1FBF0F00A490968B3
:1005E000B1FBF0F000F0ECFA48B9102C07D2002271
:1005F0002146501E00F036F800206C6070BD0120CE
:1006000070BD000008000020140000200C4808B550
:10061000816941F001018161816901F0010100916D
:10062000C16941F08051C161C06900F08050009003
:100630000448416821F0E06141F00071416008BD6B
:100640000010024000000140002809DB00F01F02FA
:10065000012191404009800000F1E020C0F8001124
:1006600070470000F0B40E4B1B680C46C3F3022326
:10067000C3F10705042D00D90425191D072901D24E
:10068000002300E0DB1E012606FA05F1491E214089
:1006900099409E40761E16403143F0BC01F07CB973
:1006A0000CED00E0064900F0070208684FF6FF0372
:1006B000184040EA0220034A1043086070470000D7
:1006C0000CED00E00000FA052DE9F0470F460500AB
:1006D00061D0434E306800F00700B84209D230685C
:1006E00020F0070038433060306800F00700B8425F
:1006F00051D128683B4C810712D5400703D560686B
:1007000040F4E06060602878000703D5606840F43A
:10071000605060606068A96820F0F0000843606085
:100720002878C00728D06868012810D021680228DE
:1007300010D0890700292EDA616821F003010143F6
:100740006160FFF723FF804641F288390DE02168A0
:100750008903EFE78901EDE7FFF718FFA0EB080138
:10076000494502D90320BDE8F0876068696800F058
:100770000C00B0EB810FEFD1306800F00700B842F9
:100780000BD9306820F0070038433060306800F043
:100790000700B84201D00120E5E72878400705D5D9
:1007A0006068E96820F4E06008436060287800072A
:1007B00006D56068296920F4605040EAC100606095
:1007C00000F038F86168084AC1F30311515CC84071
:1007D0000649086006480068FFF7F8FE0020C2E7F7
:1007E0000020024000100240591C000814000020A4
:1007F0000C0000200448054900684968044AC1F318
:100800000221515CC84070471400002000100240D3
:10081000691C00080448054900684968044AC1F396
:10082000C221515CC84070471400002000100240F3
:10083000691C000812A185B00FC98DE80F0014A033
:10084000144A006804905168134801F00C03042B0B
:1008500010D0082B0ED1C1F38343C9031DF8030048
:100860000AD5516804AAC1F34041515C0A4A504379
:10087000B0FBF1F005B0704708494843FAE70000C3
:1008800002030405060708090A0B0C0D0E0F1010D1
:10089000010200000010024000127A0000093D0031
:1008A0002DE9F84F040070D02078C04DC00749D022
:1008B0006868C0F38100012807D06868C0F3810030
:1008C000022809D16868C00306D52868800339D595
:1008D00060680028E7D035E06068B0F5803F0BD055
:1008E00010B1B0F5A02F11D0286820F48030286016
:1008F000286820F4802002E0286840F480302860D6
:10090000606890B1FFF742FE06460AE0286840F4AE
:1009100080202860F0E700BFFFF738FE801B6428C6
:1009200073D828688003F7D50CE0FFF72FFE064642
:1009300005E000BFFFF72AFE801B6428F0D8286876
:100940008003F7D420789A4E80074FF001094FF0CA
:10095000000839D5686810F00C0F07D06868C0F33C
:100960008100022809D16868C00306D4286880077E
:1009700014D52069012808D110E02069B0B1C6F86B
:100980000090FFF703FE074605E00AE1FFF7FEFDD2
:10099000C01B0228C4D828688007F7D52868616979
:1009A00020F0F80040EAC10028600DE0C6F80080A1
:1009B000FFF7ECFD074604E0FFF7E8FDC01B022847
:1009C00023D828688007F7D4207800072CD57948E9
:1009D000A169D9B1C0F80090FFF7D8FD074604E03F
:1009E000FFF7D4FDC01B02280FD8686A8007F7D52F
:1009F00071484FF4FA510068B0FBF1F0009000BF6D
:100A00000098411E0091FAD20EE080E0C0F800800C
:100A1000FFF7BCFD074604E0FFF7B8FDC01B022846
:100A200075D8686A8007F7D42078400760D5E869F0
:100A30000027C00008D4E86940F08050E861E86908
:100A4000012700F0805000905C480168C90513D46C
:100A50000168834641F480710160FFF797FD82468B
:100A600006E000BFFFF792FDA0EB0A0064284ED815
:100A7000DBF80000C005F5D5E06801280AD008B110
:100A8000052813D0286A20F001002862286A20F087
:100A9000040002E0286A40F001002862E06841F2A8
:100AA000883B98B1FFF772FD82460BE0286A40F060
:100AB00004002862EEE700BFFFF768FDA0EB0A0123
:100AC00059455AD8286A8007F6D50CE0FFF75EFD35
:100AD000824605E0FFF75AFDA0EB0A0159454CD8C4
:100AE000286A8007F6D41FB1E86920F08050E861D9
:100AF000E06988B36968C1F38101022944D0022802
:100B0000C6F8608004D0FFF741FD044638E034E0C9
:100B1000FFF73CFD074604E0FFF738FDC01B022845
:100B20002BD828688001F7D4206AB0F5803F05D122
:100B30006868A16820F4003008436860D4E90801BF
:100B40000843696821F4741108436860C6F860902E
:100B5000FFF71CFD044606E025E000BFFFF716FD89
:100B6000001B022809D828688001F7D51BE000BFC8
:100B7000FFF70CFD001B022802D90320BDE8F88F07
:100B800028688001F4D40EE00128F7D06868226A52
:100B900000F48031914204D1616A00F470108842FF
:100BA00001D00120EAE70020E8E700000010024041
:100BB00000004242800442421400002000700040C5
:100BC00010B5401EB0F1807F01D3012010BD4FF061
:100BD000E02460610F21601700F0DEFE0020A061BC
:100BE00007202061002010BD7047704770B590F855
:100BF0003C20012A26D0012480F83C40022280F8C3
:100C00003D2003685A689D6822F070060A683243E6
:100C10005A600D4B02689A4208D0B2F1804F05D05D
:100C20000A4B9A4202D00A4B9A4204D1496825F0F5
:100C300080031943916080F83D40002180F83C100A
:100C4000084670BD022070BD002C01400004004029
:100C50000008004010B5040003D094F83D0010B126
:100C600007E0012010BD002084F83C00204600F081
:100C70001FF8022084F83D00211D206800F008FDC7
:100C8000012084F8460084F83E0084F83F0084F890
:100C9000400084F8410084F8420084F8430084F85E
:100CA000440084F8450084F83D00002010BD000099
:100CB00008B5214A01682148914226D1816941F451
:100CC000006181618069002200F40060009011469B
:100CD0001820FFF7C7FC1820FFF7B6FC00221146CA
:100CE0001920FFF7BFFC1920FFF7AEFC00221146C8
:100CF0001A20FFF7B7FC1A20FFF7A6FC00221146C6
:100D00001B20FFF7AFFC1B2010E0B1F1804F11D189
:100D1000C16941F00101C161C069002200F0010018
:100D2000009011461C20FFF79DFC1C20BDE80840E8
:100D3000FFF78ABC08BD0000002C014000100240F3
:100D400070B5044690F83C00012817D0012584F8BE
:100D50003C50022084F83D002068826822F077022F
:100D600022F47F4282600868502830D00DDC2028B1
:100D70004DD005DC98B310283BD148E0022070BD6F
:100D8000302844D0402834D139E0602828D0702859
:100D900006D0B0F5805F2CD0B0F5005F29D10AE015
:100DA000CB68D1E90121206800F0A8FC20688168A7
:100DB00041F0770109E0CB68D1E90121206800F01A
:100DC0009DFC2068816841F48041816011E0CA681F
:100DD0004968206800F0A4FC5021206807E016E074
:100DE000CA684968206800F0ACFC6021206800F007
:100DF0008FFC84F83D50002084F83C0070BDCA6828
:100E00004968206800F08CFC40212068EFE72268E8
:100E100001461046EBE7704770B50446006801696B
:100E20004FF00005C943890715D4C168C943890734
:100E300011D4E91E016101202077206880698007B4
:100E4000204602D0FFF7E7FF04E000F098F82046C4
:100E500000F096F8257720680169C943490717D43F
:100E6000C168C943490713D46FF00401016102202E
:100E700020772068806910F4407F204602D0FFF779
:100E8000CAFF04E000F07BF8204600F079F82577EF
:100E900020680169C943090716D4C168C943090715
:100EA00012D46FF008010161042020772068C06926
:100EB0008007204602D0FFF7AEFF04E000F05FF8A5
:100EC000204600F05DF8257720680169C943C9060E
:100ED00017D4C168C943C90613D46FF0100101616A
:100EE000082020772068C06910F4407F204602D097
:100EF000FFF791FF04E000F042F8204600F040F8D0
:100F0000257720680169C943C90708D1C168C94369
:100F1000C90704D1891E0161204600F033F820681A
:100F20000169C943090609D4C168C943090605D442
:100F30006FF0800101612046FFF756FE20680169CD
:100F4000C943490609D4C168C943490605D46FF0AD
:100F500040010161204600F02DF820680169C94375
:100F600089060BD4C168C943890607D46FF02001F4
:100F700001612046BDE87040FFF737BE70BD704785
:100F800070470000084910B5884209D14FF48051DC
:100F90000648FFF7EDFA0648017811B1002101700B
:100FA00010BD0121FBE7000024000020000C0140DF
:100FB000000000207047704770B502680446106852
:100FC000D168536910F00F0F52D003F0010501F4FE
:100FD00090762E435FD0C20705D0CA0503D5E26BD9
:100FE00042F00102E263420705D5DA0703D0E26B63
:100FF00042F00202E263820705D5DA0703D0E26B12
:1010000042F00402E263020707D501F020022A43FE
:1010100003D0E26B42F00802E263E26B002A33D0B5
:10102000800604D5880602D5204600F0B2FB206871
:101030004069E16BC0F38010090700D428B3204653
:1010400000F099FB2068416949061AD5416921F0F1
:1010500040014161606BA0B12D494163606BFFF7B6
:1010600039F9002810D0606B416BBDE8704008472B
:10107000830610D58B060ED52046BDE8704000F0E3
:1010800088BB2046FFF797FF70BD2046FFF793FF10
:101090000020E06370BD03062BD50B0629D594F81C
:1010A00039002128F6D1A068B0F5805F01D1206910
:1010B000B0B1206A411C2162216800784860E08C50
:1010C000401E0004000CE084E4D12068C16821F0D7
:1010D0008001C1602068C16841F04001C16070BDFD
:1010E000206A0088C0F308005060206A801C2062DB
:1010F000E5E74006F3D54806F1D5D168204621F052
:101100004001D160202184F8391000F062F970BDEF
:101110006717000870B5040004D094F83900002562
:1011200010B106E0012070BD84F83850204600F070
:1011300023F8242084F839002068C16821F4005184
:10114000C160204600F06CFB2068016921F49041E9
:1011500001612068416921F02A0141612068C1686C
:1011600041F40051C160E563202084F8390084F81F
:101170003A00002070BD000070B586B000240094D5
:101180000194029403942E4E03682E4902200322F8
:101190002D4DB34226D18B6943F480438B618B691B
:1011A00003F4804304938B6943F004038B618969E2
:1011B000039201F0040104910102CDE90010694697
:1011C0002846FFF7E5F82815CDE9000469462846CA
:1011D0000294FFF7DDF8002211462520FFF742FABE
:1011E000252028E0194EB34227D1CB6943F40033C0
:1011F000CB61CB6903F4003304938B6943F00403A0
:101200008B618969039201F0040104910421CDE905
:10121000001069462846FFF7BBF80820CDE9000416
:10122000694628460294FFF7B3F8002211462620AB
:10123000FFF718FA2620FFF707FA06B070BD000086
:101240000038014000100240000801400044004006
:1012500090F83A30202B22D1F9B1F2B190F8383021
:10126000012B1CD081628285C2850021C1632222AC
:1012700080F83A2080F838100168CA6842F4807219
:10128000CA6001684A6942F001024A610068C168A7
:1012900041F02001C160002070470120704702200A
:1012A0007047000010B5044600681A49884213D1FF
:1012B00019494FF4FA728889B0FBF2F302FB13006C
:1012C0008A688B7B13548889401C8881887B496895
:1012D00088470122104915E01049884218D10E496B
:1012E0001039886838B18B898A7BC3F30903C254EB
:1012F0008889401C88814A680AB1887B90470649E2
:10130000012210392046BDE810400E31FFF7A0BF82
:1013100010BD00000044004044010020003801409E
:101320002DE9F843044690F839001F4616460D464D
:1013300020284CD1C5B1BEB194F83800012846D060
:10134000012084F838004FF00008C4F83C802120C8
:1013500084F83900FFF71AF9A6848146E684A0686C
:10136000B0F5805F03D004E00120BDE8F883206978
:1013700028B12E465FF0000584F838800EE0002684
:10138000FAE78021204600F0A7FAA0B9AEB116F81E
:10139000010B21684860E08C401EE084E08C4B46E5
:1013A0004FF0000200970028EBD14FF0400120469B
:1013B00000F092FA30B10320D7E735F8020BC0F302
:1013C0000800E6E7202084F839000020CDE702205D
:1013D000CBE77047FEE7000070B586B000241848E0
:1013E0000094019402940394816941F004018161A5
:1013F000816901F004010491816941F00801816172
:101400008069104E00F008004FF4805504900022CF
:1014100029463046FFF7B4F80220CDE90240009596
:101420000125694601953046FEF7B2FF28028DE896
:10143000310069463046FEF7ABFF06B070BD0000D4
:1014400000100240000C014010B586B0002418487E
:101450000094019402940394049414490594016047
:1014600041F6FF01C0E9011440F2E731C0E903147D
:1014700044618461FFF7EEFB08B1FEF7A1FE4FF473
:101480008050009069460A48FFF75AFC08B1FEF701
:1014900097FE049404A906480594FFF7A7FB0028CB
:1014A00001D0FEF78DFE06B010BD0000002C0140FB
:1014B0002400002010B586B0002417480094019441
:1014C0000294039404944FF080410594016041F626
:1014D000FF01C0E9011442F20F71C0E903148461F5
:1014E000FFF7B8FB08B1FEF76BFE4FF48050009099
:1014F00069460948FFF724FC08B1FEF761FE049431
:1015000004A905480594FFF771FB002801D0FEF7F8
:1015100057FE06B010BD00006C0000200C4810B54E
:101520000A4901604FF4E1314160002181600C22E1
:10153000C160C0E904128161C161FFF7EBFD0028C1
:1015400003D0BDE81040FEF73BBE10BD003801409F
:10155000B40000200C4810B50A4901604FF4E13195
:101560004160002181600C22C160C0E904128161E8
:10157000C161FFF7CFFD002803D0BDE81040FEF7A2
:101580001FBE10BD00440040F4000020FEE7FEE74F
:1015900070477047FFF700B830B58FB02821684614
:1015A000FEF7D9FD14210AA8FEF7D5FD022501207A
:1015B000049000951020059000244FF46010CDE9B0
:1015C000084007956846FFF76BF908B172B6FEE769
:1015D0000F20CDE90A054FF48060CDE90C400221CF
:1015E0000AA80E94FFF770F8002801D072B6FEE743
:1015F0000FB030BD7047000030B59DB000F0F8FA74
:1016000010A21AAB07CA83E807000B2564216846BD
:10161000FEF7A1FD0E4C0020ADF8640020780028F4
:101620000ED119AB6A4629461AA800F003FB002820
:1016300006D001202070BDF86410684600F0ECFA76
:101640001DB030BD73656E642053544F50210000AF
:10165000180000200148FFF7DFBB00002400002035
:101660000148FFF7D9BB0000240000200148FFF724
:10167000D3BB0000240000200148FFF7CDBB0000D1
:10168000240000200148FFF7C7BB00006C000020C9
:10169000F0B50268164B174C174D4FF08047984233
:1016A00005D0B84203D0A04201D0A84203D122F015
:1016B00070064A683243984205D0B84203D0A0422F
:1016C00001D0A84203D122F44074CA6822434C6975
:1016D00022F08002224302608A68C2620A68826243
:1016E000984201D10969016301214161F0BD000007
:1016F000002C0140000400400008004010B5846840
:1017000042EA032224F47F440A432243826010BD4C
:10171000826822F070020A4342F00701816070473C
:1017200010B5036A046A24F001040462846924F099
:10173000F00444EA021423F00A020A4384610262BC
:1017400010BD10B5036A23F0100303628369046AB5
:1017500023F4704343EA023224F0A00343EA011168
:101760008261016210BD10B5406A0021C185C1844B
:10177000FFF721FC10BD0168CA6822F49072CA60AC
:1017800001684A6922F001024A61202180F83A107A
:10179000704710B590F83A10222901D0022010BDF0
:1017A00082684FF480539A4201D1016921B1816A64
:1017B0009A421BD04AB10AE00268816A5268C2F3B9
:1017C00008020A80816A891C08E0026972B1026815
:1017D000526802F07F020A70816A491C8162C18DE1
:1017E000491E0904090CC18503D016E0026852683D
:1017F000F1E70168CA6822F02002CA600168CA687D
:1018000022F48072CA6001684A6922F001024A61CA
:10181000202180F83A10FFF745FD002010BD0000A0
:1018200070B5044600680169E26821F44051114333
:1018300001612169A0680843616908432168CA6899
:1018400041F20C639A430243CA6020684169A2696D
:1018500021F44071114341611E492068884202D140
:10186000FEF7D8FF01E0FEF7C5FF00EBC00101EB7A
:101870000012606864218000B2FBF0F3B3FBF1F367
:101880006FF018067343B2FBF0F5B2FBF0F605EB10
:101890008305322303EB0515B5FBF1F5B6FBF1F635
:1018A00005F0F00505EB0615B2FBF0F6B2FBF0F023
:1018B000B0FBF1F06FF01802504306EB800003EB31
:1018C0000010B0FBF1F0216800F00F0028448860A0
:1018D00070BD0000003801402DE9F04198461746E0
:1018E0000E460446069D1DE0681C1BD02DB1FEF778
:1018F0004DFEA0EB0800A84214D92068C16821F46D
:10190000D071C1602068416921F00101416120204E
:1019100084F8390084F83A00002084F83800032065
:10192000BDE8F0812068006836EA000004D000209D
:10193000B842D9D00020F3E70120F9E710B50448F8
:10194000FFF73AFBBDE810400248FEF73BBC000041
:10195000B40000203401002010B50448FFF72CFB30
:10196000BDE810400248FEF72DBC0000F400002046
:1019700044010020FEE700000FB4054B10B503A999
:10198000044A029800F028F810BC5DF814FB00002F
:10199000911B0008200000200907090E002804DB25
:1019A00000F1E02080F80014704700F00F0000F113
:1019B000E02080F8141D704702E008C8121F08C11B
:1019C000002AFAD170477047002001E001C1121FC0
:1019D000002AFBD1704700002DE9FF4F8BB09A46DB
:1019E0000F460546002606E025280BD052460D99E5
:1019F00090476D1C761C28780028F5D10FB0304632
:101A0000BDE8F08F0024A0460122604900E00443B5
:101A100015F8013F203B02FA03F00842F7D128787D
:101A20002E2817D115F8010F44F004042A280ED0EF
:101A30006FF02F022878A0F1300109290AD808EBAD
:101A4000880102EB410100EB01086D1CF2E757F839
:101A5000048B6D1C287869283ED006DC0028CDD088
:101A600063280BD0642804D136E0732810D0752881
:101A70004BD052460D999047761C85E017F8040B21
:101A80008DF8000000208DF80100E946012003E0F8
:101A900057F8049B4FF0FF3061074FF0000401D46A
:101AA0000AE0641C44450DDA8442FADB19F804109C
:101AB0000029F6D106E0641C8442FCDB19F804100E
:101AC0000029F8D1264404E019F8010B52460D997B
:101AD0009047641EF8D257E001CF4FF00A0B002860
:101AE00002DA40422D2102E0210504D52B218DF898
:101AF0002410012103E0E10705D02021F7E70DF1D3
:101B0000200908910CE00021F9E701CF4FF00A0B02
:101B1000F9E75946FEF72AFB01F1300209F8012DD9
:101B20000028F6D1ADEB090000F1200B600701D4CD
:101B30004FF00108D84502DDA8EB0B0000E00020C3
:101B40008046002406E009A85246005D0D999047A2
:101B5000641C761C08988442F5DB04E03020524671
:101B60000D999047761CB8F10001A8F10108F5DC49
:101B700005E019F8010B52460D999047761CBBF110
:101B80000001ABF1010BF4DC6D1C34E70928010006
:101B900013B54FF6FF73012269460248FFF7C0FBF9
:101BA00000981CBDB4000020FEF7FEFCFFF7F4FC1B
:101BB000FFF712FCFFF748FCFFF77CFCFFF7AEFCD9
:101BC000FFF7C8FC00F014F89A22044904A0FFF7BC
:101BD000D3FE00BFFFF710FDFCE70000541C000817
:101BE0002D2D2D25732D2D25642D2D2D0D0A000055
:101BF00010B50120FEF760FB05490028486006D0BB
:101C00000023BDE81040034A0121FEF731BB10BD9F
:101C1000180000205401002030B4044604480A464D
:101C2000214640684FF6FF73006830BCFFF778BB71
:101C30001800002008B5009313460A4601460448E0
:101C40004068FEF7DFFA002800D0012008BD000040
:101C5000180000206D61696E0000000000000000A7
:101C60000001020304060708090000000001020346
:101C700004000000941C0008000000202400000064
:101C8000B8190008B81C000824000020FC0500005A
:101C9000C81900080000000000000000010000005A
:101CA00010000000000000000024F400000000000C
:081CB00000000000000000002C
:04000005080000ED02
:00000001FF
