:020000040800F2
:10000000B0060020010100082B160008511400085A
:10001000291600080F020008391900080000000026
:100020000000000000000000000000002F16000883
:1000300011020008000000002D160008311600080B
:100040001B0100081B0100081B0100081B01000820
:100050001B0100081B0100081B0100081B01000810
:100060001B0100081B0100081B0100081B01000800
:100070001B0100081B0100081B0100081B010008F0
:100080001B0100081B0100081B0100081B010008E0
:100090001B0100081B0100081B0100081B010008D0
:1000A0009D160008B5160008AD160008A516000834
:1000B000BD1600081B0100081B0100081B010008F9
:1000C0001B0100081B0100081B0100081B010008A0
:1000D0001B010008011900081D1900081B01000878
:1000E0001B0100081B0100081B010008DFF80CD0F1
:1000F00000F05CF800480047DD1C0008B006002056
:100100000648804706480047FEE7FEE7FEE7FEE7B1
:10011000FEE7FEE7FEE7FEE7FEE7FEE799160008CA
:10012000ED000008D2B201E000F8012B491EFBD21D
:1001300070470022F6E710B513460A4604461946F2
:10014000FFF7F0FF204610BD2DE9F05F05460020C7
:1001500092469B4688460646814640241BE0284638
:1001600041464746224600F042F853465A46C01AD6
:10017000914110D311461846224600F029F82D1A55
:1001800067EB01084F4622460120002100F020F8CD
:1001900017EB00094E41201EA4F10104DFDC4846A4
:1001A00031462A464346BDE8F09F0000064C074D05
:1001B00006E0E06840F0010394E807009847103437
:1001C000AC42F6D3FFF796FF042700082427000867
:1001D000202A04DB203A00FA02F100207047914007
:1001E000C2F1200320FA03F3194390407047202AFC
:1001F00004DB203A21FA02F00021704721FA02F3D1
:10020000D040C2F120029140084319467047FEE7F2
:100210007047EFF3108072B6FEE7000001680A68CD
:10022000126812F0100F08BF7047BCB5002401948B
:100230000A681268019209684968019101990121CF
:10024000C17308A002F012FA274DA868A98901F02D
:1002500097FEA989A868FFF76CFFEC73AC81BDE835
:10026000BC407047232323232323237265636569DE
:100270007665643269646C65232323230D000000D6
:10028000BCB505460024012903D0022919D10F4825
:1002900000E00D48C5E90003AA6005F10E01012246
:1002A00001F01AF828680168CA6842F01002CA60B2
:1002B0000194012401680968019100684068019077
:1002C0000198204602B0B0BD5C0100209C010020D6
:1002D000054A0021012808BF02F11001022808BFC9
:1002E00011460846704700BF2000002090F82110FA
:1002F00002291BD102681F4B11689A4221F00E019E
:100300001160116821F001011160194912D01A4BD6
:100310009A4211D0194B9A4210D0194B9A4210D0E0
:10032000184B9A4210D14FF4803315E004218163B9
:100330000120704701230FE010230DE04FF480737C
:100340000AE04FF4805307E001F1680C4FF080732E
:10035000624508BF4FF480130B604FF48071018435
:10036000416B19B180B58847002080BD00207047DF
:1003700004000240080002401C000240300002401D
:1003800044000240580002402DE9FE4F624A042317
:10039000624C4FF0000B4FF0010E4FF00F084FF082
:1003A000000A4FF0000C904200F1140208BF032332
:1003B000019200930A6832FA0CF308BFBDE8FE8F81
:1003C0000EFA0CF52A4200F0A2804A68032A16D9D8
:1003D000112A26D0122A28D0524B9A4213D0524BBF
:1003E0009A4210D0514B9A420DD0514B9A420AD0AA
:1003F000504B9A4207D0504B9A4204D022E0DFE89B
:1004000002F002181B1F8A6842B1012A019A4FF0BC
:10041000080A08BF00F11002156013E04FF0040A4B
:1004200010E0CA6802F1040A0CE0CA6802F10C0A82
:1004300008E0D1F80CA005E0CA6802F1080A01E062
:100440004FF0000ABCF1080F02463C4E674628BF39
:100450000432136828BF3744BF0008FA07F60AFAC7
:1004600007F7B3433B431360CA79D2064FD5654AB9
:100470004FEA9C09A4F57E7613461A6842F0010201
:100480001A601A6802F0010202920BF00C02029F3D
:1004900008FA02F3A0462A4C56F82970A04227EA2F
:1004A00003030AD0274CA0420AD0274CDDF800E015
:1004B000A04208BF4FF0020E04E04FF0000E01E032
:1004C0004FF0010E0EFA02F244464FF0010E4FF0CB
:1004D0000F081A4346F829204A68236812F4803F1F
:1004E0000CBFAB432B4323609303636854BFAB4300
:1004F0002B436360D302A36854BFAB432B439202E8
:10050000A360074B1A6854BFAA432A431A600BF131
:10051000040B0CF1010C4DE70014014000040140F4
:100520000C04014000001110000012100000211006
:10053000000022100000311000003210F8FFFF3FD1
:1005400000080140000C014000100140002A08BFD3
:1005500009040161704700001B488068704700BFB4
:1005600019480178826811448160704780B5074856
:10057000016841F010010160032000F081F80020C3
:1005800000F006F800F022F8002080BD00200240B4
:1005900070B50D4E04464FF47A713078B1FBF0F02F
:1005A00096490968B1FBF0F000F00AFB01250F2C19
:1005B00008D838B94FF0FF3021460022002500F05E
:1005C00033F87460284670BD0400002082B00D48E6
:1005D0000222016841F001010160016801F001019E
:1005E00001910199416841F080514160406800F0FB
:1005F0008050009000980448016862F31A6101601D
:1006000002B070471810024004000140002808DBC7
:1006100000F01F010122400902FA01F1014A42F8EB
:100620002010704700E100E0B0B500F00F031A4D54
:10063000124CB0F1FF3FA3F104032B4403F10C0370
:10064000C8BF03192868C0F30220051DC41E80F02E
:100650000700072D4FF0010538BF0024042828BFEC
:10066000042005FA00F00138084005FA04F10F31C2
:10067000A0401140084300011870B0BD00E400E044
:1006800005494FF6FF030A681A4060F30A2203483F
:1006900010430860704700BF0CED00E00000FA0551
:1006A0002DE9F04104468846002C00F08880464F32
:1006B0004FF48050395801F0070141450AD23958AA
:1006C00021F0070141EA08013950385800F00700CD
:1006D000404574D1206810F0020F11D0410742BF8D
:1006E000796841F4E0617960010742BF796841F4BB
:1006F000605179607968A26821F0F0011143796056
:10070000C00727D06068012804D1396811F4003F80
:1007100008D154E03968022802D1890102D44EE0A0
:1007200089074CD5796821F0030108437860FFF709
:1007300013FF064641F288357868616800F00C00C6
:10074000B0EB810F06D0FFF707FF801BA842F3D95B
:10075000032035E04FF48050395801F0070141453E
:100760000AD9395821F0070141EA080139503858AF
:1007700000F00700404522D1206810F0040F05D09A
:100780007968E26821F4E06111437960000706D5D9
:100790007868216920F4605040EAC100786000F078
:1007A00031F87968094AC1F30311515CC840134913
:1007B000086007480068FFF7EBFE002000E001201A
:1007C000C0B2BDE8F08100BF0010024090260008D2
:1007D00008000020F848F649094A00680968C1F392
:1007E0000221515CC8407047F348F149044A00684F
:1007F0000968C1F3C221515CC84070471000002055
:10080000A026000810B50D4C0D48226802F00C031C
:10081000082B18BF10BDC2F383430AA112F4803F16
:10082000CB5C02D10C48584310BD216809A2584343
:10083000C1F34041515CB0FBF1F010BD0410024027
:1008400000127A0002030405060708090A0B0C0DC2
:100850000E0F10100102000000093D002DE9FE43BB
:100860000446002C00F057812078D04ED04FC007AE
:10087000B1464FD0386800F00C00042818D0386812
:1008800000F00C00082803D1386810F4803F0FD125
:100890006068A0B1B0F5803F06D03168B0F5A02FF8
:1008A00024D141F480203060306840F4803023E06F
:1008B000306810F4003F2DD0606858BB2BE13068E1
:1008C00020F480303060306820F480203060FFF702
:1008D00043FE05464E46306810F4003F1AD0FFF73D
:1008E0003BFE411B03206429F4D915E121F480303B
:1008F0003060306820F480203060FFF72DFE054620
:10090000306810F4003F05D1FFF726FE401B642835
:10091000F6D9E2E0207880072FD5386810F00C0F68
:1009200008D0386800F00C0008280BD1386810F4A3
:10093000803F07D1306810F0020F17D020690128DE
:1009400014D0E8E021699B48002900F0878001214C
:100950000160FFF701FE0546306810F0020F05D177
:10096000FFF7FAFD401B0228F6D9B6E0306861694E
:1009700020F0F80040EAC10030602078000730D550
:10098000A06980B18B480121C0F88014FFF7E4FD15
:100990000546386A10F0020F16D1FFF7DDFD401B47
:1009A0000228F6D999E083480021C0F88014FFF7A7
:1009B000D3FD0546386A10F0020F12D0FFF7CCFDC8
:1009C000401B0228F6D988E07B484FF4FA510068B2
:1009D000B0FBF1F0029000BF0298411E0028029186
:1009E000F9D12078400740F18180B86910F0805F2C
:1009F0000BD1B8694FF0010840F08050B861B86978
:100A000000F080500190019801E04FF000086B4E1B
:100A10004846805910F4807F12D14946885940F4E5
:100A200080708851FFF798FD05464846805910F4BC
:100A3000807F05D1FFF790FD401B6428F5D94CE07D
:100A4000E068E8B1012805D0F969052830D141F006
:100A50000400F861F86940F001002FE00021016016
:100A6000FFF77AFD05464846006810F0020F3FF494
:100A700084AFFFF771FD411B03200229F3D94BE03E
:100A8000F86920F00100F861F86920F00400F861CD
:100A9000FFF762FD054641F28836F86910F0020F53
:100AA0001DD0FFF759FD411B0320B142F5D933E0BA
:100AB00021F00100F861F86920F00400F861FFF707
:100AC0004BFD054641F28836F86910F0020F06D159
:100AD000FFF742FD401BB042F6D903201CE0B8F1FD
:100AE000000F1EBFB86920F08050B861E669002E83
:100AF0005AD0386800F00C00082811D1012E0AD015
:100B00003868216A00F480328A4204D1616A00F4B4
:100B10007010884248D00120C0B203B0BDE8F08315
:100B20002449002088460866FFF716FD0546022E78
:100B30000CD146464846006810F0007F12D0FFF7FF
:100B40000BFD411B03200229F4D9E5E74846006864
:100B500010F0007F28D0FFF7FFFC411B0320022983
:100B6000F4D9D9E7206AB0F5803F05D13968A26889
:100B700021F40031114339603968626A104321F46D
:100B800074110843386001203066FFF7E5FC044625
:100B90004846006810F0007F06D1FFF7DDFC011B1E
:100BA00003200229F4D9B7E70020B5E7001002407E
:100BB0000410024000004242100000200060FEFFCE
:100BC000411E0020B0EB116F1CBF01207047044A8A
:100BD000F023516003490B7007219060116070474A
:100BE00010E000E023ED00E07047704790F83C30E3
:100BF0000222012B28D080B580F83D20012280F808
:100C00003C2002685368D2F808C0B2F1804F23F04C
:100C1000700E0B6843EA0E035360BDE8804008D0B5
:100C2000584B9A4205D0584B9A4202D0574B9A42A1
:100C300004D149682CF080031943916000220121FE
:100C400080F83C2080F83D10D0B2704710B50446C3
:100C500034B394F83D0028B9002084F83C002046C5
:100C600000F020F80220211D84F83D00206800F0EB
:100C700029FD012084F8460084F83E0084F83F00F6
:100C800084F8400084F8410084F8420084F843006E
:100C900084F8440084F8450084F83D00002010BD2D
:100CA000012010BDBCB50068B0F1804F2AD0364994
:100CB000884218BFBCBD1D481D4C0022016841F48C
:100CC000006101600021006800F40060019001985B
:100CD0001820A047174D1820A847192000210022EE
:100CE000A0471920A8471A2000210022A0471A2057
:100CF000A8471B2000210022A0471B202946BDE851
:100D0000BC40084709480022416841F001014160A8
:100D10000021406800F00100009000981C20FFF7BF
:100D200083FC1C20BDE8BC40FFF770BC18100240DB
:100D3000290600080D06000890F83D1001291CBF87
:100D400001207047022180F83D100068C168B0F1B1
:100D5000804F41F00101C16008D00A49884205D0A6
:100D60000949884202D00949884204D1816801F0CA
:100D70000701062903D0016841F00101016000204C
:100D8000704700BF00040040002C014000080040F4
:100D900010B50446022094F83C20012A25D084F89E
:100DA0003D0001204FF6777284F83C0020688446AD
:100DB0005CF8083F23EA0202CCF800200B682BB154
:100DC000102B03D0202B18BF302B10D1DCF80000E3
:100DD00020F07700184340F00700CCF80000002016
:100DE000012184F83C0084F83D10C0B210BD402BB6
:100DF0001AD0502B26D0602B32D0B3F5005F3DD0F7
:100E0000702BECD1D1E90102C968104340EA0120FE
:100E1000DCF8001021F47F410843CCF80000DCF836
:100E2000000040F07700D8E74B68CA68194600F028
:100E300077FCD4F800C05CF8080F20F0770040F091
:100E40004700CAE74B68CA68194600F069FCD4F845
:100E500000C05CF8080F20F0770040F05700BCE7B6
:100E60004B68CA68194600F06CFCD4F800C05CF806
:100E7000080F20F0770040F06700AEE7D1E90102EB
:100E8000C968104340EA0120DCF8001021F47F41DA
:100E90000843CCF80000DCF8000040F480409CE7F8
:100EA000704710B504462068016911F0020F19D08F
:100EB000C16811F0020F15D06FF00201016101212C
:100EC0002177806910F0030F03D02046FFF7E8FF79
:100ED00005E0204600F09FF8204600F09DF8002035
:100EE00020772068016911F0040F19D0C16811F052
:100EF000040F15D06FF00401016102212177806990
:100F000010F4407F03D02046FFF7CAFF05E02046DB
:100F100000F081F8204600F07FF80020207720685C
:100F2000016911F0080F19D0C16811F0080F15D030
:100F30006FF00801016104212177C06910F0030FEF
:100F400003D02046FFF7ACFF05E0204600F063F831
:100F5000204600F061F8002020772068016911F038
:100F6000100F19D0C16811F0100F15D06FF01001DB
:100F7000016108212177C06910F4407F03D0204629
:100F8000FFF78EFF05E0204600F045F8204600F010
:100F900043F8002020772068016911F0010F0AD082
:100FA000C16811F0010F06D06FF001010161204608
:100FB00000F034F82068016911F0800F0AD0C16890
:100FC00011F0800F06D06FF0800101612046FFF71D
:100FD0000BFE2068016911F0400F0AD0C16811F0C2
:100FE000400F06D06FF040010161204600F01EF86E
:100FF0002068016911F0200F08BF10BDC16811F011
:10100000200F00D110BD6FF0200101612046BDE826
:101010001040FFF7EABD7047704700000249884260
:1010200008BF00F043BE7047CC00002070477047F7
:1010300070B5064631680A680846CB6850F8144F08
:1010400012F00F0F58D003F4907504F0010C55EA1C
:101050000C055AD0D1071FBF13F48071F16B41F01A
:101060000101F163510706D5BCF1000F1EBFF16B02
:1010700041F00201F163910706D5BCF1000F1EBFDC
:10108000F16B41F00401F163110708D503F0200171
:1010900051EA0C011EBFF16B41F00801F163F16BE5
:1010A00000296DD002EA0301890604D5304600F01C
:1010B0007AFB306814300068F16B00F0400001F0FA
:1010C0000801084348D0304600F060FB30684169B1
:1010D00011F0400F3BD0416921F040014161706B3C
:1010E000A8B32C494163FFF701F9002848D0706B81
:1010F000416BBDE87040084702EA0300800604D552
:101100003046BDE8704000F04EBB02EA0300020624
:101110000FD596F83900212832D1B068B0F5805F3C
:1011200001D13069F0B1306A421C32620078486007
:101130001FE0400624D5C86820F04000C860202089
:1011400086F839003046BDE8704000F080B930467E
:10115000BDE87040FFF76BBF3046FFF768FF002027
:10116000F06370BD306A30F8022B6FF35F224A6083
:101170003062F08C4FF6FF7201381042F08400D0DC
:1011800070BDC86820F08000C860C86840F04000AA
:10119000C86070BD8117000810B5044644B394F8C8
:1011A000390028B9002084F83800204600F022F8E1
:1011B000242084F839002068C16821F40051C160FE
:1011C000204600F02FFB2068016921F49041016165
:1011D000416921F02A014161C16841F40051C160B7
:1011E00000202021E06384F8391084F83A1010BD03
:1011F000012010BD70B586B000266549CDE90466B2
:10120000CDE902660068884233D0604988425FD1E8
:10121000B648304C02AD016841F48041016001687C
:1012200001F4804101910199016841F004010160DC
:101230002946006800F00400019001980220039004
:101240004FF400700290032005902046FFF79CF8B1
:1012500000204FF4806103900291049020462946BB
:10126000FFF792F8252000210022FFF7DDF9252065
:101270002CE09E48174C02AD416841F400314160BA
:10128000416801F4003101910199016841F00401C4
:1012900001602946006800F00400019001980220D6
:1012A000039004200290032005902046FFF76CF87D
:1012B000082003962946029020460496FFF764F81A
:1012C000262000210022FFF7AFF92620FFF79EF924
:1012D00006B070BD0008014090F83A30202B06D1CE
:1012E000012329B122B190F83830012B02D1022319
:1012F000D8B270470023C285C363828581622221F0
:1013000080F8383080F83A100068C16841F4807184
:10131000C160416941F001014161C16841F02001B2
:10132000C160E5E7B0B50446B0492068884217D0EF
:10133000BC49884218BFB0BD164DA889411CA9817F
:101340004FF4FA71B0FBF1F202FB1100A968AA7B1D
:101350000A54696809B1A87B884705F10E010FE0BE
:101360000C4DA86930B1A98B4A1C6FF39F21AA8349
:10137000AA7F4254696909B1A87F884705F11E0117
:1013800020460122FFF7A8FFB0BD00BF0038014092
:1013900000440040200000202DE9F0470446994613
:1013A00016460D4694F83900202806D101202DB1AB
:1013B00026B194F83800012803D10220C0B2BDE85C
:1013C000F0874FF0000A0120C4F83CA084F83800F0
:1013D000212084F83900FFF7BFF8A684E684804610
:1013E000A068B0F5805F06D127690026002F0CBFEA
:1013F0002E462F4601E02F46002684F838A015E03F
:101400002046802142464B4600F04EFAC0B91FB13B
:1014100017F8011B206805E036F8021B206800273A
:101420006FF35F214160E08C0138E084E08C00289C
:10143000E6D12046402142464B4600F035FA08B13D
:101440000320BBE7202084F839000020B6E770476E
:10145000FEE7000026484FF480510122FFF776B8DE
:1014600023484FF480510022FFF770B82DE9FF4167
:101470001E481F4C00224FF480554FF000080168B1
:1014800041F004010160016801F00401009100993C
:10149000016841F0080101604FF48051006800F0DC
:1014A0000800009000982046FFF750F8012702201E
:1014B000104E8DE8A0016D46039020462946B047A6
:1014C00020464FF480510022FFF740F88020294643
:1014D00000902046B0474FF48070CDF80480294634
:1014E000009020460297B047BDE8FF8118100240E7
:1014F000000C014089030008FEB5A048854B00217F
:1015000040F2E73C41F6FF02CDE90411CDE90211BA
:10151000C0E90032C0E9021CC0E904118161CDE9D3
:101520000011FFF793FB08B1FEF773FE4FF48050F4
:1015300002A902909148FFF72BFC08B1FEF769FE63
:1015400000206946CDE900008C48FFF74FFB08B149
:10155000FEF75FFE06B080BDFEB58748002142F26F
:101560000F7C4FF0804341F6FF02CDE90411CDE935
:1015700002118161C0E90032C0E9021C0161CDE9BC
:101580000011FFF763FB08B1FEF743FE4FF48050F4
:1015900002A902907848FFF7FBFB08B1FEF739FE7D
:1015A00000206946CDE900007348FFF71FFB08B132
:1015B000FEF72FFE06B080BD80B5D648B94A4FF47D
:1015C000612100234FF00C0CC0E90021C0E9023377
:1015D000C0E9043CC0E90633FFF7DEFD002814BF74
:1015E000BDE8804080BDFEF714BE00BF003801405A
:1015F00080B5CF480B4A4FF4165100234FF00C0C26
:10160000C0E90021C0E90233C0E9043CC0E9063367
:10161000FFF7C2FD002814BFBDE8804080BDFEF783
:10162000F8BD00BF00440040FEE7FEE7704770478A
:10163000FEF796BF70B590B006AC1821201DFEF7DE
:1016400078FD01A81421FEF774FD01200225002673
:101650000A90102006950B904FF460100D950E9691
:101660000F902046FFF7FAF818B1EFF3108072B62A
:10167000FEE70F20022101904FF480600396CDE930
:10168000040601A80295FFF70BF818B1EFF31080DC
:1016900072B6FEE710B070BD704700003748FFF724
:1016A00000BC00BF3548FFF7FCBB00BF3348FFF765
:1016B000F8BB00BF3148FFF7F4BB00BF2E48FFF76F
:1016C000F0BB00BFB0B50368124DB0F1804F07D03A
:1016D000114CA04204D0A84202D0104CA04207D125
:1016E0004C6823F45C73CA6824F4407423431343A6
:1016F0004A6923F08003A84242EA030202608A6832
:10170000C2620A68826204BF0969296301214161DA
:10171000B0BD00BF002C01400004004000080040A4
:10172000D0F820C0036A23F001030362836923F029
:10173000F00343EA021282612CF00A0211430162B3
:101740007047036A23F010030362836923F4704334
:1017500043EA0232036A826123F0A00242EA0111E5
:101760000162704780B50448FFF7E6FA0348BDE818
:101770008040FFF7E1BA00BF14010020CC00002038
:10178000406A0021C185C184FFF751BC0168CA6865
:1017900022F49072CA604A6922F001024A61202153
:1017A00080F83A10704790F83A10222918BF704715
:1017B0008268B2F5805F03D1016979B1816A05E081
:1017C000816A0AB902690AB17F2200E0FF22036838
:1017D0005B681A400A700122816A06E00268816A29
:1017E00052686FF35F220A80022211444FF6FF72A3
:1017F0008162C18D01391142C18500D070470168F5
:10180000CA6822F02002CA60CA6822F48072CA60E4
:101810004A6922F001024A61202180F83A10FFF75C
:1018200081BD000010B5044620680169E26821F41A
:101830004051114341F20C620161D4F808C0D4E96F
:1018400004E3C16891434EEA0C021A431143C1609C
:101850004169A26921F440711143416111498842F3
:1018600002D0FEF7B7FF01E0FEF7BEFF19214843A3
:10187000D4E900126FF063049200B0FBF2F064222E
:10188000B0FBF2F303FB0400322404EB0010B0FBC6
:10189000F2F000F0F00200F00F0002EB0312104330
:1018A000886010BD003801402DE9F0411D4690468A
:1018B0000F4604466E1C206801683940B9421BD0AF
:1018C000002EF8D035B1FEF747FEA0EB0800A84285
:1018D000F1D92068C16821F4D071C160416921F05B
:1018E000010141612020002184F8390084F838107A
:1018F00084F83A00032000E00020C0B2BDE8F08187
:1019000080B5C548FFF794FB0348BDE88040FEF76B
:1019100085BC00BF5C0100203000002080B5044879
:10192000FFF786FB0348BDE88040FEF777BC00BFA9
:101930009C01002020000020FEE780B5142000213B
:1019400000F0FEF90B205021BDE8804000F04ABABB
:10195000006800BA704700002DE9F04F85B0654976
:10196000014491F82220082A14D8DFE802F005206B
:1019700062B3B3B36EB3B60069480122017800299F
:1019800011BF01200121017000205A4981F8440053
:10199000002054E02B2A00F0A5802D2A40F09A80E8
:1019A00001F1250005B0BDE8F04F00F045BA534CF9
:1019B000534F2046B847534E82B200202146B047CD
:1019C000514D04462846B847E1B282B2084629463E
:1019D000B0474E4D04462846B847E1B282B20846A9
:1019E0002946B0474A4D04462846B847E1B282B27C
:1019F00008462946B047474D04462846B847E1B255
:101A000082B208462946B047434D04462846B847A7
:101A1000E1B282B208462946B047404D0446284606
:101A2000B847E1B282B208462946B047C2B20120A7
:101A300005E030490E200222A1F8440002200321D3
:101A400005B0BDE8F04F00F08DBB91F8232091F870
:101A5000243025310630284D43EA022203920291B8
:101A60000190002032E0019822494FF000093044F3
:101A7000084490F8211090F8220040EA01270298CB
:101A800000EB0608845D98F8020098F801B098F819
:101A900003A0049000F0D7F801E009F101095FFA12
:101AA00089F1814203D215F81120A242F5D105EB4C
:101AB00041004078834507D1049808F104014AEABF
:101AC0000022204600F02EF8F019043086B2039868
:101AD0008642C8D305B0BDE8F08F05B0BDE8F04F31
:101AE000FFF72BBF91F8250005B0BDE8F04F00F0DF
:101AF000ADB800BF50000020A8260008D02600087E
:101B0000A71E0008FD1E0008EE260008D7260008C4
:101B1000DF260008E7260008E5260008FF26000863
:101B2000C800002010B5431E132B00F26680DFE8CA
:101B300003F00A0E15641C252C333A646464646453
:101B4000646464414A51012000F030F951E00846D4
:101B5000114600F06BF90146022048E008461146A4
:101B600000F068F9014603202AE00846114600F01B
:101B70005FF90146052000F0FFF83AE008461146FB
:101B800000F054F90146062031E00846114600F005
:101B90004DF9014607202AE00846114600F046F9B3
:101BA0000146082023E00846114600F03FF90146AF
:101BB00009201CE00846114600F03CF901461220BD
:101BC00000F010F915E00846114600F02FF9014623
:101BD00013200CE00846114600F028F9044614B121
:101BE000FFF738FC01E0FFF73BFC1420214600F032
:101BF000A7F80138B0FA80F04009C0B210BD00006B
:101C0000E0B50190044801A901224FF6FF73FFF7E8
:101C1000C3FB019802B080BD5C01002080B54FF08D
:101C2000000E4FF0000C1FFA8EF38B4224BF5FFAB8
:101C30008CF080BD10F8012B5FFA8CF30EF1010ED1
:101C400002EB030CEFE71420704700001FB50446B9
:101C50000CA0214600F0B8FA10A0042CD0E9011223
:101C6000CDE901120D490091817B80898DF80E101C
:101C7000ADF80C0018BF1FBD68460F2100F074F9C5
:101C80001FBD00BF6765745F776966695F737461C4
:101C90007475733D25640D0A0000000055AA030702
:101CA00000080B020004000000092B00B0B50A4830
:101CB0000025041D0BE0607948B1D4E90201013030
:101CC0008842A06003D3A560206900B180472468E2
:101CD000002CF0D1B0BD00BF4000002080B5FEF761
:101CE00045FCFFF7A7FCFFF7C1FBFFF705FCFFF77B
:101CF00033FCFFF761FCFFF77BFCFFF733FD00F0DF
:101D000023F908A00BA19E2200F05EFA00F062F910
:101D10000A484FF480510122FEF718FC00F06CF9DC
:101D2000FCE700BF2D2D2D25732D2D25642D2D2D88
:101D30000D0A00006D61696E00000000000C01409A
:101D4000B0B50C460146AB480078012812D0364D9C
:101D50000020A8470121A8470021A8470121A84742
:101D6000002C18BF01242146A84702460720032162
:101D700000F0F8F90120B0BDB0B50C4601469D4811
:101D8000007801280FD0284D0020A8470421A8473B
:101D90000021A8470121A8472146A847024607205D
:101DA000032100F0DFF90120B0BD00BF70B50D4682
:101DB0000146904814460078012811D01A4E0020A0
:101DC000B0470021B047210AB047E1B2B0472946E9
:101DD000224600F093F802460720032100F0C2F9E2
:101DE000012070BDB0B50C4601468248007801283C
:101DF00017D00D4D0020A8470221A8470021A84771
:101E00000421A847210EA847C4F30741A847C4F3FB
:101E10000721A847E1B2A84702460720032100F0A6
:101E2000A1F90120B0BD00BF151F00080078704760
:101E300000787047FFF78CBD70B504462078012804
:101E400000D170BD012605A5072E08BF70BDA15D9C
:101E5000284600F0B9F90136F6E700BF25303258C0
:101E60002D0000000023E0B1D9B1884202D98B18BF
:101E7000834213D24FF0000C05E011F80C3000F84B
:101E80000C300CF1010C6245F7D109E08B1800EB26
:101E9000020C013A13F8013C0CF8013C002AF5D180
:101EA0000346184670470146002009B903E0013097
:101EB0000A5C002AFBD17047F8B50D4601460AA01E
:101EC000144600F081F9092C09DC002709A604E07A
:101ED000E95D304600F078F90137A742F8DB04A04D
:101EE000BDE8F84000F0C2BB25735B25645D0000CF
:101EF0000D0000002530325820000000B0B5054626
:101F0000B048144628444430FFF7ACFF601980B253
:101F1000B0BD00BFAB4A0244013080B282F8441029
:101F2000704700BFA748D0E9002191420AD000F1D4
:101F30001F02914224BF00F1080141604A1C426027
:101F40000878FFE7C0B2704780B50220FEF7C0F9FD
:101F50000A490028086004D0024A02210023FEF743
:101F60008FF980BDDD0100200A46014603484FF687
:101F7000FF7300680068FFF70FBA00BFA8020020D7
:101F8000B0B50C46054604E015F8010B00F004F866
:101F9000013C002CF8D1B0BD134BDFF854C0DCF885
:101FA00000201B68991A012908BF70479A4203D97B
:101FB000D11A162900D970470C4B03F117018A4238
:101FC00024BFCCF800301A46511CCCF80010107019
:101FD000704700BF04480549016005480160054895
:101FE00000210170704700BF5400002058000020FD
:101FF00050000020DC0100202DE9F84F3B4CDFF8B9
:10200000F0B0218809E000F0D7F850B1FFF78AFF5F
:102010002288511C21800BF8020088B21E28F2D9B8
:1020200004E02188072938BFBDE8F88F8AB231A0C3
:102030005946FFF741FF00250FF2C00940E01BF8A9
:10204000070055282FD10BEB07067078AA282AD154
:10205000BD1C1BF8050098BB3079717941EA00205E
:1020600000F1070A1FFA8AF5272D28D2484629468B
:102070003B4600F0A9F82088C01BA84225DB4FF69C
:10208000FF7050441FFA80FA30465146FFF7C6FDF4
:102090003D44A5F101081BF80810884205D13846D7
:1020A000FFF75AFC0CE001350AE030465146FFF7D5
:1020B000B5FD1BF8082001461AA000F085F8FD1CAC
:1020C0002288AFB2D01B0728B9DA208081B21FA0C6
:1020D0003A4600F079F8228832B10BEB07015846F6
:1020E000BDE8F84FFFF7BEBEBDE8F88FAC02002098
:1020F0006F00002073746172743A000072785F762A
:10210000616C75655F6C656E3D25642072785F69F2
:102110006E3D2564206F66667365743D25640D0A07
:1021200000000000637263206572726F7220286382
:1021300072633A3078255820206275742064617487
:10214000613A30782558290D0A00000072785F69DD
:102150006E3D2564206F66667365743D25640D0AC7
:1021600000000000B0B5DFF85CC05524634603F8FA
:102170003E4FAA245C709970D870100A0024187120
:10218000901D5A71073291B280B2A1F1010E04E0A4
:1021900013F8015BE4B201382C440028F8D10CEBB1
:1021A0000E0080F83E40100408BFB0BD0CF13E00A8
:1021B000BDE8B040FFF7D8BE024803C8401A18BFB8
:1021C00001207047500000200FB4054B10B503A943
:1021D000044A029800F018F810BC5DF814FB0000E7
:1021E000011C00080000002002E008C8121F08C1FE
:1021F000002AFAD170477047002001E001C1121F88
:10220000002AFBD1704700002DE9FF4F8DB00F462B
:102210000546002606E025280BD0DDE90F12904781
:102220006D1C761C28780028F5D111B03046BDE829
:10223000F08F0024A246A1460122EC4900E00443AD
:1022400015F8013F203B02FA03F00842F7D1287845
:102250002A2810D06FF02F022878A0F13001092928
:1022600014D80AEB8A0102EB410144F0020400EBAE
:10227000010A6D1CF0E701CF5FEA000A03D544F4C0
:102280000054CAF1000A44F002046D1C28782E287C
:1022900017D115F8010F44F004042A280ED06FF06E
:1022A0002F022878A0F1300109290AD809EB890109
:1022B00002EB410100EB01096D1CF2E757F8049BAA
:1022C0006D1C28786C280FD006DC4C2817D06828A5
:1022D0000DD06A2814D104E0742810D07A280FD1C8
:1022E0000DE044F400140AE044F4801401E044F4E6
:1022F00040146978814202D104F580146D1C6D1C74
:102300002A786E2A1FD00CDC632A31D004DC002A24
:102310008BD0582A11D1A3E0642A68D0692A0CD145
:1023200065E0732A2ED004DC6F2A73D0702A04D1A2
:102330009BE0752A6FD0782A6ED01046DDE90F1227
:102340009047761C50E1C4F30250022806D00328BF
:1023500009D0042801CF09D0066045E101CFF1176B
:10236000C0E9006140E101CF06803DE106703BE13C
:1023700017F8040B8DF8000000208DF80100EB46E3
:10238000012003E057F804BB4FF0FF3061074FF026
:10239000000102D40DE008F10101884649450FDA39
:1023A0008045F8DB1BF808100029F4D108E008F19B
:1023B000010188468142FADB1BF808100029F6D19A
:1023C000DDE90F23AAEB08008146214600F036F92B
:1023D000304400EB080604E0DDE90F121BF8010BA6
:1023E0009047B8F10108F7D221464846F7E00A21A4
:1023F000C4F302534FF0000B0891022B04D001CF1D
:10240000C117032B09D00AE0FF1D27F00707F7E8E3
:10241000020108E032E01FE020E000B2C117042B07
:1024200001D140B2C117031E71F1000307DA4FF06A
:10243000000CD0EB0C006CEB01012D2302E0230516
:1024400004D52B238DF82430012303E0E30701D0CA
:102450002023F7E7984658E00A2110E010210EE00B
:1024600010204FF0000B08900CE010214FF0000BF3
:1024700044F004044FF00809089103E008214FF0EC
:10248000000B0891C4F30253022B04D001CF0021AA
:10249000032B06D006E0FF1D27F00707F7E802012F
:1024A00003E080B2042B00D1C0B24FF00008230734
:1024B0002BD5702A07D0DDF820C08CF0100C5CEA18
:1024C0000B0C05D00EE040238DF82430012308E0EA
:1024D00050EA010306D030238DF824308DF82520F2
:1024E00002239846DDF820C08CF0080C5CEA0B0C47
:1024F0000BD150EA010301D1630706D530238DF8D3
:1025000024304FF00108A9F10109582A04D038A25B
:102510000B9208AA0A920BE03AA2F9E75B46089AE6
:10252000FDF712FE0B9B9B5C0A9A521E0A921370D7
:1025300050EA0102F2D10A98ADEB000000F1200B45
:10254000600702D524F4803401E04FF00109D94539
:1025500002DDA9EB0B0000E0002000EB0B01414481
:102560000890AAEB010AE00306D4DDE90F23214617
:10257000504600F063F806444FF0000908E009A94E
:1025800011F80900DDE90F12904709F10109761CE5
:10259000C145F4DBE0030CD5DDE90F2321465046AD
:1025A00000F04CF8064404E0DDE90F1230209047BB
:1025B000761C0899481E08900029F5DC08E00A9866
:1025C0000A990078491C0A91DDE90F129047761CA0
:1025D000BBF10001ABF1010BF1DC21465046DDE916
:1025E0000F2300F019F806446D1C1BE609280100B2
:1025F0003031323334353637383961626364656679
:10260000000000003031323334353637383941423A
:1026100043444546000000002DE9F04104460025F2
:102620001E461746880404D405E039462020B047EA
:102630006D1C641EF9D52846BDE8F0812DE9F041F6
:10264000044600251E469046C80301D5302700E009
:102650002027880404D505E041463846B0476D1C64
:10266000641EF9D52846BDE8F081000010B5044687
:1026700001E0FFF7C5FA14F8010B04490028F8D16E
:10268000BDE810400A20FFF7BBBA000000000020A0
:102690000000000000000000010203040607080912
:1026A000000000000102030401000201030204040F
:1026B000050406010701080109010A040B020C01C7
:1026C0000D040E050F021002110212021301140173
:1026D0007B2270223A2200222C2276223A220031DA
:1026E0002E302E30003200222C226D223A006A64F5
:1026F0006A6F6E6C65626663797931626368007DCA
:10270000000000003027000800000020200000002A
:10271000E821000850270008200000209006000053
:10272000F821000800000000000000000000000088
:102730000000000001000000100000000000000088
:102740000024F40000000000000000000000000071
:04000005080000ED02
:00000001FF
