:020000040800F2
:1000000020050020010100083B12000891100008A3
:10001000391200086D0100084115000800000000B9
:100020000000000000000000000000003F12000877
:100030006F010008000000003D1200084112000896
:100040001B0100081B0100081B0100081B01000820
:100050001B0100081B0100081B0100081B01000810
:100060001B0100081B0100081B0100081B01000800
:100070001B0100081B0100081B0100081B010008F0
:100080001B0100081B0100081B0100081B010008E0
:100090001B0100081B0100081B0100081B010008D0
:1000A000A5120008C9120008BD120008B11200080C
:1000B000D51200081B0100081B0100081B010008E5
:1000C0001B0100081B0100081B0100081B010008A0
:1000D0001B01000829150008351500081B01000840
:1000E0001B0100081B0100081B010008DFF80CD0F1
:1000F00000F02AF80048004781150008200500207C
:100100000648804706480047FEE7FEE7FEE7FEE7B1
:10011000FEE7FEE7FEE7FEE7FEE7FEE7A1120008C6
:10012000ED000008D2B201E000F8012B491EFBD21D
:1001300070470022F6E710B513460A4604461946F2
:10014000FFF7F0FF204610BD064C074D06E0E068C3
:1001500040F0010394E8070098471034AC42F6D30E
:10016000FFF7C8FFB8150008D8150008FEE770476C
:1001700072B6FEE710B590F821100024022903D0D2
:100180000421816301243DE001680A6822F00E0227
:100190000A6001680A6822F001020A601A4A0168CE
:1001A000914201D1012121E0174A1432914201D13B
:1001B00010211BE0144A2832914201D1891515E023
:1001C000114A3C32914201D189140FE00E4A50325B
:1001D000914202D14FF4803108E00B4A64329142DF
:1001E00002D14FF4801101E04FF08071064A083AC5
:1001F0005160012180F82110002180F82010416B0E
:1002000001B18847204610BD080002402DE9F84F93
:10021000DFF8B891002409F1040A0AF1040B23461F
:100220000F270BF1040EC9E00125A5402A40AA4280
:100230007DD1674ED1F804C0ACEB0608B44532D08E
:1002400014DCBCF1030F3AD009DCBCF1000F2AD05A
:10025000BCF1010F1CD0BCF1020F31D11DE0BCF18B
:10026000110F17D0BCF1120F2AD119E0B8F5881F71
:1002700019D006DCB8F5803F15D0B8F5801F1FD126
:1002800011E0B8F5001F0ED0B8F5041F18D10AE030
:10029000CB6815E0CB681B1D12E0CB6808330FE07C
:1002A000CB680C330CE08B682BB1012B4FF00803AB
:1002B00003D0456104E0042302E0056100E000236F
:1002C000FF2A01D8064601E000F104064FEA840542
:1002D00001D9A5F12005D6F8008007FA05FC28EA27
:1002E0000C0803FA05F548EA0508C6F800804D68D1
:1002F000ED0062D5374DAE6946F00106AE61AD69DD
:1003000024F0030605F001050095334D06EB050CBE
:10031000DCF80850A607360F07FA06F825EA0805A4
:10032000DFF8B880404503D14FF0000817E044E003
:10033000DFF8AC80404502D14FF001080FE0DFF854
:10034000A480404502D14FF0020808E0DFF8988011
:10035000404502D14FF0030801E04FF0040808FACD
:1003600006F848EA0508CCF808804D68D9F800601E
:10037000ED034D4601D5164300E096432E604D68CF
:10038000DAF80060AD03554601D5164300E0964308
:100390002E604D68DBF80060ED025D4601D5164326
:1003A00000E096432E604D68DEF80060AD027546B1
:1003B00001D5164300E096432E60641C0D682A4662
:1003C000E5407FF431AFBDE8F88F00000004014044
:1003D0000000111000100240000001400008014020
:1003E000000C014000100140001401400AB10161FD
:1003F00070470904FBE7000001488068704700006F
:100400000000002002488168027811448160704732
:1004100000000020074810B5016841F0100101609C
:10042000032000F075F8002000F006F800F024F832
:10043000002010BD0020024070B50D4D04464FF461
:100440007A712878B1FBF0F00A490968B1FBF0F045
:1004500000F0ECFA48B9102C07D200222146501EB9
:1004600000F036F800206C6070BD012070BD000007
:10047000000000200C0000200C4808B5816941F004
:1004800001018161816901F001010091C16941F0BF
:100490008051C161C06900F08050009004484168FB
:1004A00021F0E06141F00071416008BD00100240A0
:1004B00000000140002809DB00F01F0201219140EB
:1004C0004009800000F1E020C0F8001170470000F2
:1004D000F0B40E4B1B680C46C3F30223C3F10705AF
:1004E000042D00D90425191D072901D2002300E09D
:1004F000DB1E012606FA05F1491E214099409E4067
:10050000761E16403143F0BC01F01BB80CED00E044
:10051000064900F0070208684FF6FF03184040EA5A
:100520000220034A10430860704700000CED00E011
:100530000000FA052DE9F0470F46050061D0434E53
:10054000306800F00700B84209D2306820F0070098
:1005500038433060306800F00700B84251D1286855
:100560003B4C810712D5400703D5606840F4E0603A
:1005700060602878000703D5606840F460506060D0
:100580006068A96820F0F000084360602878C00720
:1005900028D06868012810D02168022810D0890767
:1005A00000292EDA616821F0030101436160FFF741
:1005B00023FF804641F288390DE021688903EFE787
:1005C0008901EDE7FFF718FFA0EB0801494502D9C3
:1005D0000320BDE8F0876068696800F00C00B0EBAC
:1005E000810FEFD1306800F00700B8420BD93068B6
:1005F00020F0070038433060306800F00700B84250
:1006000001D00120E5E72878400705D56068E96852
:1006100020F4E060084360602878000706D5606831
:10062000296920F4605040EAC100606000F038F8A9
:100630006168084AC1F30311515CC840064908606B
:1006400006480068FFF7F8FE0020C2E700200240DD
:10065000001002409E1500080C000020040000203D
:100660000448054900684968044AC1F30221515C05
:10067000C84070470C00002000100240AE15000872
:100680000448054900684968044AC1F3C221515C25
:10069000C84070470C00002000100240AE15000852
:1006A00012A185B00FC98DE80F0014A0144A00688C
:1006B00004905168134801F00C03042B10D0082B50
:1006C0000ED1C1F38343C9031DF803000AD5516855
:1006D00004AAC1F34041515C0A4A5043B0FBF1F017
:1006E00005B0704708494843FAE7000002030405D3
:1006F000060708090A0B0C0D0E0F1010010200006E
:100700000010024000127A0000093D002DE9F84F68
:10071000040070D02078C04DC00749D06868C0F38D
:100720008100012807D06868C0F38100022809D140
:100730006868C00306D52868800339D5606800283A
:10074000E7D035E06068B0F5803F0BD010B1B0F570
:10075000A02F11D0286820F480302860286820F469
:10076000802002E0286840F480302860606890B102
:10077000FFF742FE06460AE0286840F48020286021
:10078000F0E700BFFFF738FE801B642873D82868A5
:100790008003F7D50CE0FFF72FFE064605E000BF0B
:1007A000FFF72AFE801B6428F0D828688003F7D45E
:1007B00020789A4E80074FF001094FF0000839D594
:1007C000686810F00C0F07D06868C0F38100022839
:1007D00009D16868C00306D42868800714D5206949
:1007E000012808D110E02069B0B1C6F80090FFF7E9
:1007F00003FE074605E00AE1FFF7FEFDC01B0228E5
:10080000C4D828688007F7D52868616920F0F80007
:1008100040EAC10028600DE0C6F80080FFF7ECFD5B
:10082000074604E0FFF7E8FDC01B022823D828682C
:100830008007F7D4207800072CD57948A169D9B171
:10084000C0F80090FFF7D8FD074604E0FFF7D4FD9D
:10085000C01B02280FD8686A8007F7D571484FF48B
:10086000FA510068B0FBF1F0009000BF0098411E03
:100870000091FAD20EE080E0C0F80080FFF7BCFDE6
:10088000074604E0FFF7B8FDC01B022875D8686A68
:100890008007F7D42078400760D5E8690027C000BA
:1008A00008D4E86940F08050E861E869012700F069
:1008B000805000905C480168C90513D401688346E4
:1008C00041F480710160FFF797FD824606E000BFAA
:1008D000FFF792FDA0EB0A0064284ED8DBF8000079
:1008E000C005F5D5E06801280AD008B1052813D065
:1008F000286A20F001002862286A20F0040002E043
:10090000286A40F001002862E06841F2883B98B113
:10091000FFF772FD82460BE0286A40F0040028626F
:10092000EEE700BFFFF768FDA0EB0A0159455AD872
:10093000286A8007F6D50CE0FFF75EFD824605E0E9
:10094000FFF75AFDA0EB0A0159454CD8286A8007E9
:10095000F6D41FB1E86920F08050E861E06988B3FF
:100960006968C1F38101022944D00228C6F8608079
:1009700004D0FFF741FD044638E034E0FFF73CFDCA
:10098000074604E0FFF738FDC01B02282BD8286873
:100990008001F7D4206AB0F5803F05D16868A1686E
:1009A00020F4003008436860D4E90801084369680E
:1009B00021F4741108436860C6F86090FFF71CFDCD
:1009C000044606E025E000BFFFF716FD001B0228E5
:1009D00009D828688001F7D51BE000BFFFF70CFDA0
:1009E000001B022802D90320BDE8F88F2868800187
:1009F000F4D40EE00128F7D06868226A00F4803150
:100A0000914204D1616A00F47010884201D0012043
:100A1000EAE70020E8E70000001002400000424240
:100A2000800442420C0000200070004010B5401EBF
:100A3000B0F1807F01D3012010BD4FF0E024606150
:100A40000F21601700F07DFD0020A06107202061CC
:100A5000002010BD7047704770B590F83C20012A07
:100A600026D0012480F83C40022280F83D20036813
:100A70005A689D6822F070060A6832435A600D4B2E
:100A800002689A4208D0B2F1804F05D00A4B9A42D0
:100A900002D00A4B9A4204D1496825F080031943D9
:100AA000916080F83D40002180F83C10084670BD00
:100AB000022070BD002C01400004004000080040EE
:100AC00010B5040003D094F83D0010B107E00120F8
:100AD00010BD002084F83C00204600F01FF80220E2
:100AE00084F83D00211D206800F0FAFB012084F805
:100AF000460084F83E0084F83F0084F8400084F803
:100B0000410084F8420084F8430084F8440084F8EB
:100B1000450084F83D00002010BD000008B5214AC2
:100B200001682148914226D1816941F400618161C7
:100B30008069002200F40060009011461820FFF741
:100B4000C7FC1820FFF7B6FC002211461920FFF75A
:100B5000BFFC1920FFF7AEFC002211461A20FFF758
:100B6000B7FC1A20FFF7A6FC002211461B20FFF756
:100B7000AFFC1B2010E0B1F1804F11D1C16941F0F1
:100B80000101C161C069002200F00100009011461E
:100B90001C20FFF79DFC1C20BDE80840FFF78ABC25
:100BA00008BD0000002C01400010024070B5044652
:100BB00090F83C00012817D0012584F83C50022011
:100BC00084F83D002068826822F0770222F47F4298
:100BD00082600868502830D00DDC20284DD005DC1C
:100BE00098B310283BD148E0022070BD302844D093
:100BF000402834D139E0602828D0702806D0B0F5DC
:100C0000805F2CD0B0F5005F29D10AE0CB68D1E934
:100C10000121206800F09AFB2068816841F077018B
:100C200009E0CB68D1E90121206800F08FFB206842
:100C3000816841F48041816011E0CA684968206898
:100C400000F096FB5021206807E016E0CA6849686A
:100C5000206800F09EFB6021206800F081FB84F892
:100C60003D50002084F83C0070BDCA684968206887
:100C700000F07EFB40212068EFE722680146104625
:100C8000EBE7704770B50446006801694FF0000556
:100C9000C943890715D4C168C943890711D4E91E1E
:100CA000016101202077206880698007204602D0FA
:100CB000FFF7E7FF04E000F098F8204600F096F810
:100CC000257720680169C943490717D4C168C9431A
:100CD000490713D46FF004010161022020772068D6
:100CE000806910F4407F204602D0FFF7CAFF04E07D
:100CF00000F07BF8204600F079F82577206801693C
:100D0000C943090716D4C168C943090712D46FF053
:100D100008010161042020772068C069800720460F
:100D200002D0FFF7AEFF04E000F05FF8204600F0CD
:100D30005DF8257720680169C943C90617D4C168E1
:100D4000C943C90613D46FF0100101610820207750
:100D50002068C06910F4407F204602D0FFF791FF61
:100D600004E000F042F8204600F040F825772068C3
:100D70000169C943C90708D1C168C943C90704D17A
:100D8000891E0161204600F032F820680169C943DC
:100D9000090609D4C168C943090605D46FF080016A
:100DA00001612046FFF756FE20680169C9434906E4
:100DB00009D4C168C943490605D46FF040010161F7
:100DC000204600F015F820680169C94389060BD454
:100DD000C168C943890607D46FF02001016120462C
:100DE000BDE87040FFF737BE70BD70477047704771
:100DF0007047704770B5026804461068D16853693F
:100E000010F00F0F52D003F0010501F490762E433D
:100E10005FD0C20705D0CA0503D5E26B42F00102DC
:100E2000E263420705D5DA0703D0E26B42F0020223
:100E3000E263820705D5DA0703D0E26B42F00402D1
:100E4000E263020707D501F020022A4303D0E26BD8
:100E500042F00802E263E26B002A33D0800604D538
:100E6000880602D5204600F0BCFA20684069E16B94
:100E7000C0F38010090700D428B3204600F0A3FA7D
:100E80002068416949061AD5416921F04001416154
:100E9000606BA0B12D494163606BFFF76BF90028CF
:100EA00010D0606B416BBDE870400847830610D5D9
:100EB0008B060ED52046BDE8704000F092BA204661
:100EC000FFF797FF70BD2046FFF793FF0020E06318
:100ED00070BD03062BD50B0629D594F839002128BF
:100EE000F6D1A068B0F5805F01D12069B0B1206A69
:100EF000411C2162216800784860E08C401E00049B
:100F0000000CE084E4D12068C16821F08001C16058
:100F10002068C16841F04001C16070BD206A00884E
:100F2000C0F308005060206A801C2062E5E740069C
:100F3000F3D54806F1D5D168204621F04001D160B3
:100F4000202184F8391000F0A2F870BDB713000812
:100F500070B5040004D094F83900002510B106E003
:100F6000012070BD84F83850204600F023F824207A
:100F700084F839002068C16821F40051C16020461E
:100F800000F076FA2068016921F49041016120683F
:100F9000416921F02A0141612068C16841F4005192
:100FA000C160E563202084F8390084F83A0000200D
:100FB00070BD000070B586B00024009401940294C6
:100FC00003942E4E03682E49022003222D4DB34276
:100FD00026D18B6943F480438B618B6903F4804392
:100FE00004938B6943F004038B618969039201F0D8
:100FF000040104910102CDE9001069462846FFF77B
:1010000005F92815CDE90004694628460294FFF742
:10101000FDF8002211462520FFF75AFA252028E086
:10102000194EB34227D1CB6943F40033CB61CB696E
:1010300003F4003304938B6943F004038B618969E3
:10104000039201F0040104910421CDE900106946E6
:101050002846FFF7DBF80820CDE90004694628465A
:101060000294FFF7D3F8002211462620FFF730FA4A
:101070002620FFF71FFA06B070BD000000380140BF
:1010800000100240000801400044004070477047D3
:10109000FEE7000070B586B0002414480094019467
:1010A00002940394816941F004018161816901F036
:1010B00004010491816941F00801816180690C4E4D
:1010C00000F008004FF48055049000222946304675
:1010D000FFF78CF901200095CDE90104022003906F
:1010E00069463046FFF792F806B070BD0010024026
:1010F000000C014010B586B00024184800940194FB
:1011000002940394049414490594016041F6FF018C
:10111000C0E9011440F2E731C0E90314446184617D
:10112000FFF7CEFC08B1FFF723F84FF48050009092
:1011300069460A48FFF73AFD08B1FFF719F8049429
:1011400004A906480594FFF787FC002801D0FFF7A3
:101150000FF806B010BD0000002C01401000002068
:1011600010B586B0002417480094019402940394AB
:1011700004944FF080410594016041F6FF01C0E9FD
:10118000011440F2E731C0E903148461FFF798FCD1
:1011900008B1FEF7EDFF4FF4805000906946094812
:1011A000FFF704FD08B1FEF7E3FF049404A9054826
:1011B0000594FFF751FC002801D0FEF7D9FF06B0D7
:1011C00010BD0000580000200C4810B50A4901600D
:1011D0004FF4E1314160002181600C22C160C0E91F
:1011E00004128161C161FFF7B3FE002803D0BDE89E
:1011F0001040FEF7BDBF10BD00380140A000002028
:101200000C4810B50A4901604FF4E13141600021FA
:1012100081600C22C160C0E904128161C161FFF7E5
:1012200097FE002803D0BDE81040FEF7A1BF10BD17
:1012300000440040E0000020FEE7FEE770477047F2
:10124000FFF7E0B830B58FB028216846FEF771FF90
:1012500014210AA8FEF76DFF0225012004900095D5
:101260001020059000244FF46010CDE90840079548
:101270006846FFF74BFA08B172B6FEE70F20CDE9DA
:101280000A054FF48060CDE90C4002210AA80E94B3
:10129000FFF750F9002801D072B6FEE70FB030BD5D
:1012A000704700000148FFF7EDBC0000100000206F
:1012B0000148FFF7E7BC0000100000200148FFF7DD
:1012C000E1BC0000100000200148FFF7DBBC00007B
:1012D000100000200148FFF7D5BC00005800002096
:1012E000F0B50268164B174C174D4FF080479842E7
:1012F00005D0B84203D0A04201D0A84203D122F0C9
:1013000070064A683243984205D0B84203D0A042E2
:1013100001D0A84203D122F44074CA6822434C6928
:1013200022F08002224302608A68C2620A688262F6
:10133000984201D10969016301214161F0BD0000BA
:10134000002C0140000400400008004010B58468F3
:1013500042EA032224F47F440A432243826010BD00
:10136000826822F070020A4342F0070181607047F0
:1013700010B5036A046A24F001040462846924F04D
:10138000F00444EA021423F00A020A438461026270
:1013900010BD10B5036A23F0100303628369046A69
:1013A00023F4704343EA023224F0A00343EA01111C
:1013B0008261016210BD10B5406A0021C185C184FF
:1013C000FFF717FD10BD0168CA6822F49072CA6069
:1013D00001684A6922F001024A61202180F83A102E
:1013E000704710B590F83A10222901D0022010BDA4
:1013F00082684FF480539A4201D1016921B1816A18
:101400009A421BD04AB10AE00268816A5268C2F36C
:1014100008020A80816A891C08E0026972B10268C8
:10142000526802F07F020A70816A491C8162C18D94
:10143000491E0904090CC18503D016E002685268F0
:10144000F1E70168CA6822F02002CA600168CA6830
:1014500022F48072CA6001684A6922F001024A617E
:10146000202180F83A10FFF711FE002010BD000087
:1014700070B5044600680169E26821F440511143E7
:1014800001612169A0680843616908432168CA684D
:1014900041F20C639A430243CA6020684169A26921
:1014A00021F44071114341611E492068884202D1F4
:1014B000FFF7E6F801E0FFF7D3F800EBC00101EB1E
:1014C0000012606864218000B2FBF0F3B3FBF1F31B
:1014D0006FF018067343B2FBF0F5B2FBF0F605EBC4
:1014E0008305322303EB0515B5FBF1F5B6FBF1F6E9
:1014F00005F0F00505EB0615B2FBF0F6B2FBF0F0D7
:10150000B0FBF1F06FF01802504306EB800003EBE4
:101510000010B0FBF1F0216800F00F002844886053
:1015200070BD0000003801400148FFF763BC0000B7
:10153000A00000200148FFF75DBC0000E000002093
:10154000FEE70907090E002804DB00F1E02080F81F
:101550000014704700F00F0000F1E02080F8141D27
:10156000704702E008C8121F08C1002AFAD170476C
:101570007047002001E001C1121F002AFBD1704713
:10158000FEF748FFFFF75EFEFFF784FDFFF7B2FDB1
:10159000FFF7E6FDFFF718FEFFF732FEFEE700005B
:1015A0000000000000000102030406070809000013
:1015B0000000010203040000D8150008000000200C
:1015C0001000000062150008E81500081000002057
:1015D0001005000072150008010000001000000056
:0815E000000000000024F400EB
:04000005080000ED02
:00000001FF
