:020000040800F2
:10000000D806002001010008BF1D0008591B000888
:10001000BD1D00087F050008A9220008000000009F
:10002000000000000000000000000000C31D0008E8
:100030008105000800000000C11D0008C51D000862
:100040001B0100081B0100081B0100081B01000820
:100050001B0100081B0100081B0100081B01000810
:100060001B0100081B0100081B0100081B01000800
:100070001B0100081B0100081B0100081B010008F0
:100080001B0100081B0100081B0100081B010008E0
:100090001B0100081B0100081B0100081B010008D0
:1000A0007D1E0008951E00088D1E0008851E000894
:1000B000A11E00081B0100081B0100081B0100080D
:1000C0001B0100081B0100081B0100081B010008A0
:1000D0001B010008712200088D2200081B01000886
:1000E0001B0100081B0100081B010008DFF80CD0F1
:1000F00000F014FA00480047E9270008D80600205D
:100100000648804706480047FEE7FEE7FEE7FEE7B1
:10011000FEE7FEE7FEE7FEE7FEE7FEE72D1E00082E
:10012000ED000008D2B201E000F8012B491EFBD21D
:1001300070470022F6E710B513460A4604461946F2
:10014000FFF7F0FF204610BD2DE9FF5F1D464FF081
:10015000FF3BD5E9014691465F464FF00008A9698B
:100160007F1C01988847296A824688470028F6D173
:10017000BAF1FF3F0CD024F4C064002E19DD6006F4
:1001800014D5BAF12B0F09D0BAF12D0F0ED103E01F
:10019000584604B0BDE8F09F44F48064A9697F1C10
:1001A00001988847761E8246002E02DDBAF1300F94
:1001B00003D0B9F1000F26D032E0A969761E44F4CD
:1001C00000747F1C019888478246002E05DDBAF135
:1001D000780F06D0BAF1580F03D0B9F1000F10D044
:1001E0001EE0B9F1000F02D0B9F1100F18D1A969C2
:1001F000761E24F400747F1C0198884782461020E4
:1002000002E0082000E00A20814609E008FB090816
:10021000A969761E44F400747F1C019888478246C1
:10022000002E05DD4946504600F032F90028EDDA8F
:10023000E96901988847A00502D46FF00100A8E79A
:10024000E00725D1600613D5600502D5C8F100008E
:1002500000E0404629680A1D2A600968220501D588
:10026000087015E0220701D5088011E008600FE052
:100270002868011D29600068210502D580F80080EA
:1002800006E0210702D5A0F8008001E0C0F8008058
:1002900038467EE7F0B480EA0102D40F4200B2EBA8
:1002A000410F02D20246084611464A0042D0C30D11
:1002B000DDB2C1F3C752AD1A202D35DAC1F31601F4
:1002C00041F4000204B15242C5F1200602FA06F1DF
:1002D0002A411044B3EBD05F23D0C4B1012DA0EB71
:1002E000C35009DCF0BC4FF0004202EAC352DBB25B
:1002F00000F5000000F0E3B8400000F1807000EB72
:10030000C350A0F1807040EAD170490009E049086B
:1003100041EAC071A0EBC35000F50000400800EBBB
:10032000C350F0BC00F0C2B86142012202EB4101AF
:10033000001BF6E7F0BC704781F00041AAE780F0AF
:100340000040A7E780EA010210B502F00043400038
:1003500022D04A001FD0010E01EB1261C0F35600FB
:10036000C2F3560240F4000042F40002A0FB022057
:1003700000047F39140400D0401C50EA124001D41C
:100380004000491EC2B20C0604EBD010401C4008CD
:10039000802A02D003E0002010BD20F001000029D7
:1003A00000DA0020184310BD002801DBC0F1004036
:1003B000002901DBC1F10041814201D801207047D1
:1003C00000207047002801DBC0F10040002901DB5C
:1003D000C1F10041814201D30120704700207047E4
:1003E000002801DBC0F10040002901DBC1F1004120
:1003F000814201D9012070470020704700F000427F
:1004000020F00040C10DC0F3160040F400007F2929
:1004100001DA00207047962903DCC1F19601C8403B
:1004200001E096398840002AF4D0404270472DE917
:10043000F05F0546002092469B4688460646814668
:1004400040241BE0284641464746224600F087F8F4
:1004500053465A46C01A914110D3114618462246B7
:1004600000F06EF82D1A67EB01084F462246012076
:10047000002100F065F817EB00094E41201EA4F1A1
:100480000104DFDC484631462A464346BDE8F09F7A
:100490003A2800D2303820F02002412A01D3A2F1BC
:1004A0003700884201D34FF0FF3070470029A8BFC2
:1004B0007047401C490008BF20F00100704710B48D
:1004C000B0FA80FC00FA0CF050EA010404BF10BC42
:1004D000704749B1CCF1200421FA04F411FA0CF16F
:1004E00018BF012121430843A3EB0C01CB1D4FEAA8
:1004F00000614FEA102042BF002010BC704700EBA3
:10050000C35010440029A4BF10BC7047401C4900D0
:1005100008BF20F0010010BC70470000064C074DDA
:1005200006E0E06840F0010394E8070098471034C3
:10053000AC42F6D3FFF7DEFD80320008A03200089F
:10054000202A04DB203A00FA02F100207047914093
:10055000C2F1200320FA03F3194390407047202A88
:1005600004DB203A21FA02F00021704721FA02F35D
:10057000D040C2F120029140084319467047FEE77F
:100580007047EFF3108072B6FEE7000001680A685A
:10059000126812F0100F08BF7047BCB50024264D3A
:1005A00001940A68126801920968496801910199E9
:1005B0000121C173A989A86802F076FAA989A868FF
:1005C000FFF7B7FDEC73AC81BDE8BC40704700BFDE
:1005D000BCB505460024012903D0022919D10F48D2
:1005E00000E00D48C5E90003AA6005F10E010122F3
:1005F00001F0F6F928680168CA6842F01002CA6082
:100600000194012401680968019100684068019023
:100610000198204602B0B0BD80010020C00100203A
:10062000054A0021012808BF02F11001022808BF75
:1006300011460846704700BF300000202DE9F84FF2
:100640003748344CDFF8D0804FF07F568346384827
:10065000824657E030463146FFF774FE81463CE063
:1006600020462146FFF76EFE074648463946FFF70B
:1006700011FE5946FFF70EFE05462946FFF762FEBA
:1006800001462846FFF75EFE054630463946FFF72D
:1006900059FE01463046FFF755FE01463046FFF74A
:1006A00051FE01462846FFF747FE00210746FFF7A7
:1006B00097FE08B1202008E038464FF04141FFF78F
:1006C00041FEFFF79BFE17A1085C414602F061FD69
:1006D00020465146FFF7DEFD044620464FF07F518D
:1006E000FFF770FE0028BBD00D20414602F051FDFF
:1006F0000A20414602F04DFD08493046FFF7CAFD89
:10070000044C064630462146FFF74EFE0028A1D095
:10071000BDE8F88F0000C0BF00000020CDCCCCBDEC
:10072000000080BF2E3A2D3D2A2325400000000006
:10073000CDCC4C3D90F8211002291BD102681F4BF3
:1007400011689A4221F00E011160116821F0010137
:100750001160194912D01A4B9A4211D0194B9A4282
:1007600010D0194B9A4210D0184B9A4210D14FF426
:10077000803315E0042181630120704701230FE0DD
:1007800010230DE04FF480730AE04FF4805307E02C
:1007900001F1680C4FF08073624508BF4FF480137D
:1007A0000B604FF480710184416B19B180B58847AB
:1007B000002080BD00207047040002400800024075
:1007C0001C00024030000240440002405800024039
:1007D0002DE9FE4F624A0423624C4FF0000B4FF0AC
:1007E000010E4FF00F084FF0000A4FF0000C90423E
:1007F00000F1140208BF0323019200930A6832FA41
:100800000CF308BFBDE8FE8F0EFA0CF52A4200F08B
:10081000A2804A68032A16D9112A26D0122A28D083
:10082000524B9A4213D0524B9A4210D0514B9A429B
:100830000DD0514B9A420AD0504B9A4207D0504BA0
:100840009A4204D022E0DFE802F002181B1F8A68F7
:1008500042B1012A019A4FF0080A08BF00F11002C4
:10086000156013E04FF0040A10E0CA6802F1040AB0
:100870000CE0CA6802F10C0A08E0D1F80CA005E00F
:10088000CA6802F1080A01E04FF0000ABCF1080F43
:1008900002463C4E674628BF0432136828BF3744DF
:1008A000BF0008FA07F60AFA07F7B3433B431360A1
:1008B000CA79D2064FD5674A4FEA9C09A4F57E76DD
:1008C00013461A6842F001021A601A6802F0010227
:1008D00002920BF00C02029F08FA02F3A0462A4C87
:1008E00056F82970A04227EA03030AD0274CA042F9
:1008F0000AD0274CDDF800E0A04208BF4FF0020EFE
:1009000004E04FF0000E01E04FF0010E0EFA02F28B
:1009100044464FF0010E4FF00F081A4346F82920C5
:100920004A68236812F4803F0CBFAB432B4323601B
:100930009303636854BFAB432B436360D302A36844
:1009400054BFAB432B439202A360074B1A6854BFBA
:10095000AA432A431A600BF1040B0CF1010C4DE77A
:1009600000140140000401400C040140000011107B
:1009700000001210000021100000221000003110B1
:1009800000003210F8FFFF3F00080140000C01405A
:10099000001001408068084018BF01207047002AFD
:1009A00008BF0904016170471B488068704700BF99
:1009B00019480178826811448160704780B5074802
:1009C000016841F010010160032000F081F800206F
:1009D00000F006F800F022F8002080BD0020024060
:1009E00070B50D4E04464FF47A713078B1FBF0F0DB
:1009F00096490968B1FBF0F000F00AFB01250F2CC5
:100A000008D838B94FF0FF3021460022002500F009
:100A100033F87460284670BD0400002082B00D4891
:100A20000222016841F001010160016801F0010149
:100A300001910199416841F080514160406800F0A6
:100A40008050009000980448016862F31A610160C8
:100A500002B070471810024004000140002808DB73
:100A600000F01F010122400902FA01F1014A42F897
:100A70002010704700E100E0B0B500F00F031A4D00
:100A8000124CB0F1FF3FA3F104032B4403F10C031C
:100A9000C8BF03192868C0F30220051DC41E80F0DA
:100AA0000700072D4FF0010538BF0024042828BF98
:100AB000042005FA00F00138084005FA04F10F316E
:100AC000A0401140084300011870B0BD00E400E0F0
:100AD00005494FF6FF030A681A4060F30A220348EB
:100AE00010430860704700BF0CED00E00000FA05FD
:100AF0002DE9F04104468846002C00F08880464FDE
:100B00004FF48050395801F0070141450AD2395855
:100B100021F0070141EA08013950385800F0070078
:100B2000404574D1206810F0020F11D0410742BF38
:100B3000796841F4E0617960010742BF796841F466
:100B4000605179607968A26821F0F0011143796001
:100B5000C00727D06068012804D1396811F4003F2C
:100B600008D154E03968022802D1890102D44EE04C
:100B700089074CD5796821F0030108437860FFF7B5
:100B800013FF064641F288357868616800F00C0072
:100B9000B0EB810F06D0FFF707FF801BA842F3D907
:100BA000032035E04FF48050395801F007014145EA
:100BB0000AD9395821F0070141EA0801395038585B
:100BC00000F00700404522D1206810F0040F05D046
:100BD0007968E26821F4E06111437960000706D585
:100BE0007868216920F4605040EAC100786000F024
:100BF00031F87968094AC1F30311515CC8401349BF
:100C0000086007480068FFF7EBFE002000E00120C5
:100C1000C0B2BDE8F08100BF00100240BC31000846
:100C200008000020F848F649094A00680968C1F33D
:100C30000221515CC8407047F348F149044A0068FA
:100C40000968C1F3C221515CC840704720000020F0
:100C5000CC31000810B50D4C0D48226802F00C0391
:100C6000082B18BF10BDC2F383430AA112F4803FC2
:100C7000CB5C02D10C48584310BD216809A25843EF
:100C8000C1F34041515CB0FBF1F010BD04100240D3
:100C900000127A0002030405060708090A0B0C0D6E
:100CA0000E0F10100102000000093D002DE9FE4367
:100CB0000446002C00F057812078D04ED04FC0075A
:100CC000B1464FD0386800F00C00042818D03868BE
:100CD00000F00C00082803D1386810F4803F0FD1D1
:100CE0006068A0B1B0F5803F06D03168B0F5A02FA4
:100CF00024D141F480203060306840F4803023E01B
:100D0000306810F4003F2DD0606858BB2BE130688C
:100D100020F480303060306820F480203060FFF7AD
:100D200043FE05464E46306810F4003F1AD0FFF7E8
:100D30003BFE411B03206429F4D915E121F48030E6
:100D40003060306820F480203060FFF72DFE0546CB
:100D5000306810F4003F05D1FFF726FE401B6428E1
:100D6000F6D9E2E0207880072FD5386810F00C0F14
:100D700008D0386800F00C0008280BD1386810F44F
:100D8000803F07D1306810F0020F17D0206901288A
:100D900014D0E8E021699B48002900F087800121F8
:100DA0000160FFF701FE0546306810F0020F05D123
:100DB000FFF7FAFD401B0228F6D9B6E030686169FA
:100DC00020F0F80040EAC10030602078000730D5FC
:100DD000A06980B18B480121C0F88014FFF7E4FDC1
:100DE0000546386A10F0020F16D1FFF7DDFD401BF3
:100DF0000228F6D999E083480021C0F88014FFF753
:100E0000D3FD0546386A10F0020F12D0FFF7CCFD73
:100E1000401B0228F6D988E07B484FF4FA5100685D
:100E2000B0FBF1F0029000BF0298411E0028029131
:100E3000F9D12078400740F18180B86910F0805FD7
:100E40000BD1B8694FF0010840F08050B861B86923
:100E500000F080500190019801E04FF000086B4EC7
:100E60004846805910F4807F12D14946885940F491
:100E700080708851FFF798FD05464846805910F468
:100E8000807F05D1FFF790FD401B6428F5D94CE029
:100E9000E068E8B1012805D0F969052830D141F0B2
:100EA0000400F861F86940F001002FE000210160C2
:100EB000FFF77AFD05464846006810F0020F3FF440
:100EC00084AFFFF771FD411B03200229F3D94BE0EA
:100ED000F86920F00100F861F86920F00400F86179
:100EE000FFF762FD054641F28836F86910F0020FFF
:100EF0001DD0FFF759FD411B0320B142F5D933E066
:100F000021F00100F861F86920F00400F861FFF7B2
:100F10004BFD054641F28836F86910F0020F06D104
:100F2000FFF742FD401BB042F6D903201CE0B8F1A8
:100F3000000F1EBFB86920F08050B861E669002E2E
:100F40005AD0386800F00C00082811D1012E0AD0C0
:100F50003868216A00F480328A4204D1616A00F460
:100F60007010884248D00120C0B203B0BDE8F083C1
:100F70002449002088460866FFF716FD0546022E24
:100F80000CD146464846006810F0007F12D0FFF7AB
:100F90000BFD411B03200229F4D9E5E74846006810
:100FA00010F0007F28D0FFF7FFFC411B032002292F
:100FB000F4D9D9E7206AB0F5803F05D13968A26835
:100FC00021F40031114339603968626A104321F419
:100FD00074110843386001203066FFF7E5FC0446D1
:100FE0004846006810F0007F06D1FFF7DDFC011BCA
:100FF00003200229F4D9B7E70020B5E7001002402A
:101000000410024000004242200000200060FEFF69
:10101000411E0020B0EB116F1CBF01207047044A35
:10102000F023516003490B700721906011607047F5
:1010300010E000E023ED00E07047704790F83C209E
:10104000012A01D102211FE0B0B501F10805D1E963
:1010500000CE3CCDC96923F47C5322F470521A436C
:101060002EF4F0431A432CF4E0431A4324F4C04313
:101070001A432A4322F4804211430268516400213A
:1010800080F83C10BDE8B040C8B2704790F83C30E2
:101090000222012B28D080B580F83D20012280F863
:1010A0003C2002685368D2F808C0B2F1804F23F0A8
:1010B000700E0B6843EA0E035360BDE8804008D011
:1010C000574B9A4205D0574B9A4202D0564B9A4200
:1010D00004D149682CF0800319439160002201215A
:1010E00080F83C2080F83D10D0B2704710B504461F
:1010F00034B394F83D0028B9002084F83C00204621
:1011000000F020F80220211D84F83D00206800F046
:10111000CDFE012084F8460084F83E0084F83F00AC
:1011200084F8400084F8410084F8420084F84300C9
:1011300084F8440084F8450084F83D00002010BD88
:10114000012010BDBCB50068B0F1804F2AD03549F0
:10115000884218BFBCBDE9481C4C0022016841F41C
:10116000006101600021006800F4006001900198B6
:101170001820A047164D1820A8471920002100224A
:10118000A0471920A8471A2000210022A0471A20B2
:10119000A8471B2000210022A0471B202946BDE8AC
:1011A000BC400847D5480022416841F00101416038
:1011B0000021406800F00100009000981C20FFF71B
:1011C0005BFC1C20BDE8BC40FFF748BC790A000866
:1011D0005D0A000890F83D1001291CBF01207047EE
:1011E000022180F83D100068C168B0F1804F41F0E5
:1011F0000101C16008D00A49884205D009498842E6
:1012000002D00949884204D1816801F0070106290A
:1012100003D0016841F0010101600020704700BF68
:1012200000040040002C01400008004010B50446B6
:10123000022094F83C20012A25D084F83D000120AA
:101240004FF6777284F83C00206884465CF8083FCB
:1012500023EA0202CCF800200B682BB1102B03D03C
:10126000202B18BF302B10D1DCF8000020F07700C5
:10127000184340F00700CCF800000020012184F85A
:101280003C0084F83D10C0B210BD402B1AD0502B4A
:1012900026D0602B32D0B3F5005F3DD0702BECD15F
:1012A000D1E90102C968104340EA0120DCF80010CE
:1012B00021F47F410843CCF80000DCF8000040F046
:1012C0007700D8E74B68CA68194600F0DFFED4F80B
:1012D00000C05CF8080F20F0770040F04700CAE734
:1012E0004B68CA68194600F0D1FED4F800C05CF81B
:1012F000080F20F0770040F05700BCE74B68CA6841
:10130000194600F0D4FED4F800C05CF8080F20F0B5
:10131000770040F06700AEE7D1E90102C9681043E9
:1013200040EA0120DCF8001021F47F410843CCF8AA
:101330000000DCF8000040F480409CE7704710B5E6
:1013400004462068016911F0020F19D0C16811F03C
:10135000020F15D06FF00201016101212177806930
:1013600010F0030F03D02046FFF7E8FF05E020460A
:1013700000F0EEF8204600F0D3F900202077206836
:10138000016911F0040F19D0C16811F0040F15D0D4
:101390006FF00401016102212177806910F4407F20
:1013A00003D02046FFF7CAFF05E0204600F0D0F842
:1013B000204600F0B5F9002020772068016911F07F
:1013C000080F19D0C16811F0080F15D06FF008018F
:1013D000016104212177C06910F0030F03D020467A
:1013E000FFF7ACFF05E0204600F0B2F8204600F021
:1013F00097F9002020772068016911F0100F19D0AB
:10140000C16811F0100F15D06FF0100101610821B3
:101410002177C06910F4407F03D02046FFF78EFF8C
:1014200005E0204600F094F8204600F079F900200D
:1014300020772068016911F0010F0AD0C16811F00E
:10144000010F06D06FF001010161204600F06AF93A
:101450002068016911F0800F0AD0C16811F0800F77
:1014600006D06FF0800101612046FFF7E5FD20689E
:10147000016911F0400F0AD0C16811F0400F06D089
:101480006FF040010161204600F054F920680169C5
:1014900011F0200F08BF10BDC16811F0200F00D15E
:1014A00010BD6FF0200101612046BDE81040FFF73C
:1014B000C4BD0000FEB501460020CDE90400CDE921
:1014C00002000D48096800F51052914212D10B49F3
:1014D0000A6842F004020A604FF48072096801F061
:1014E000040101910199022103910292059102A93F
:1014F000FFF76EF906B080BD0008014018100240E9
:1015000010B5044694F83C00012801D102201CE0EB
:10151000012084F83C004FEAB200032812D8DFE82B
:1015200000F002060A0E206800F0FCFC0AE02068C9
:1015300000F024FD06E0206800F052FD02E0206883
:1015400000F07EFD002084F83C00C0B210BD000019
:101550000748416849B141680022013941600549A5
:1015600009684A6200884863704701F0EFB900BF1C
:1015700010000020F000002010B5044634B394F8A9
:101580003D0028B9002084F83C00204600F020F8F7
:101590000220211D84F83D00206800F087FC012016
:1015A00084F8460084F83E0084F83F0084F8400048
:1015B00084F8410084F8420084F8430084F8440031
:1015C00084F8450084F83D00002010BD012010BDC6
:1015D0007047000010B5044641B1082909D004291C
:1015E00014BF04F1410004F13F0004E004F13E00A7
:1015F00001E004F14000007801281CBF012010BD6B
:10160000022041B1082909D0042914BF84F84100FF
:1016100084F83F0004E084F83E0001E084F84000D4
:101620004FEAB100042807D2144A52F8202020685B
:10163000C3681A43C26000E02068012200F062FC27
:1016400020683649884209D0B0F1804F0AD00C4951
:10165000884207D00B49884204D008E04A6C42F423
:1016600000424A64816801F00701062903D001683D
:1016700041F001010160002010BD00BFD43100081D
:101680000008004000040040B0B50D4604464FEA93
:10169000B500042807D2204951F820102068C268FC
:1016A0001140C16000E020682946002200F02AFCB9
:1016B00020681A4988420DD10A6A41F211131A4270
:1016C00008D10A6A40F244431A4203D14A6C22F418
:1016D00000424A64016A41F21112114208D1016AC2
:1016E00040F24442114203D1016821F0010101603E
:1016F0000120082D08D0042D09D0002D14BF84F836
:10170000410084F83E0004E084F8400001E084F8E1
:101710003F000020B0BD00BFE4310008002C0140B4
:10172000704700000249884208BF01F00BB87047BB
:10173000380100207047704770B5064631680A6866
:101740000846CB6850F8144F12F00F0F58D003F42E
:10175000907504F0010C55EA0C055AD0D1071FBF53
:1017600013F48071F16B41F00101F163510706D56B
:10177000BCF1000F1EBFF16B41F00201F163910754
:1017800006D5BCF1000F1EBFF16B41F00401F163FF
:10179000110708D503F0200151EA0C011EBFF16BBF
:1017A00041F00801F163F16B00296DD002EA0301F9
:1017B000890604D5304600F0AEFC3068143000686D
:1017C000F16B00F0400001F00801084348D03046BA
:1017D00000F094FC3068416911F0400F3BD0416942
:1017E00021F040014161706BA8B32C494163FEF7C1
:1017F000A1FF002848D0706B416BBDE870400847DE
:1018000002EA0300800604D53046BDE8704000F0CF
:1018100082BC02EA030002060FD596F8390021289F
:1018200032D1B068B0F5805F01D13069F0B1306A73
:10183000421C3262007848601FE0400624D5C86828
:1018400020F04000C860202086F839003046BDE80E
:10185000704000F080B93046BDE87040FFF76BBFC4
:101860003046FFF768FF0020F06370BD306A30F843
:10187000022B6FF35F224A603062F08C4FF6FF72EA
:1018800001381042F08400D070BDC86820F080009C
:10189000C860C86840F04000C86070BDF120000812
:1018A00010B5044644B394F8390028B9002084F8F0
:1018B0003800204600F022F8242084F839002068FF
:1018C000C16821F40051C160204600F063FC20682B
:1018D000016921F490410161416921F02A014161CE
:1018E000C16841F40051C16000202021E06384F808
:1018F000391084F83A1010BD012010BD70B586B0C3
:1019000000266549CDE90466CDE902660068884293
:1019100033D0604988425FD1BD48304C02AD016888
:1019200041F480410160016801F480410191019915
:10193000016841F0040101602946006800F00400DC
:1019400001900198022003904FF400700290032050
:1019500005902046FEF73CFF00204FF48061039085
:101960000291049020462946FEF732FF25200021EF
:101970000022FFF781F825202CE0A548174C02AD86
:10198000416841F400314160416801F40031019146
:101990000199016841F0040101602946006800F0E6
:1019A000040001900198022003900420029003207B
:1019B00005902046FEF70CFF08200396294602906A
:1019C00020460496FEF704FF262000210022FFF7A0
:1019D00053F82620FFF742F806B070BD000801401A
:1019E00090F83A30202B06D1012329B122B190F88A
:1019F0003830012B02D10223D8B270470023C285B0
:101A0000C36382858162222180F8383080F83A10E1
:101A10000068C16841F48071C160416941F0010111
:101A20004161C16841F02001C160E5E7B0B50446FD
:101A3000D2492068884217D0DF49884218BFB0BD1C
:101A4000164DA889411CA9814FF4FA71B0FBF1F23F
:101A500002FB1100A968AA7B0A54696809B1A87B36
:101A6000884705F10E010FE00C4DA86930B1A98B34
:101A70004A1C6FF39F21AA83AA7F4254696909B166
:101A8000A87F884705F11E0120460122FFF7A8FF25
:101A9000B0BD00BF003801400044004030000020CD
:101AA0002DE9F0470446994616460D4694F839004C
:101AB000202806D101202DB126B194F83800012844
:101AC00003D10220C0B2BDE8F0874FF0000A012028
:101AD000C4F83CA084F83800212084F83900FEF7CF
:101AE00063FFA684E6848046A068B0F5805F06D1D7
:101AF00027690026002F0CBF2E462F4601E02F46F7
:101B0000002684F838A015E02046802142464B4646
:101B100000F082FBC0B91FB117F8011B206805E077
:101B200036F8021B206800276FF35F214160E08CCC
:101B30000138E084E08C0028E6D12046402142466E
:101B40004B4600F069FB08B10320BBE7202084F876
:101B500039000020B6E77047FEE70000C6484FF4A2
:101B600000710022FEF71BBFC3484FF40071012231
:101B7000FEF715BFC0484FF480510122FEF70FBF9A
:101B8000BD484FF480510022FEF709BF2DE9FF4107
:101B90001F48B94C00220026016841F00401016091
:101BA000016801F0040100910099016841F0080109
:101BB00001604FF45241006800F008000090009866
:101BC0002046FEF7ECFE4FF001084FF490506D46B2
:101BD000104FCDF804800090022002962946039011
:101BE0002046B8471120294601904FF4404000900C
:101BF0000320029603902046B8474FF48070019668
:101C0000294600902046CDF80880B847BDE8FF81FE
:101C100018100240D107000810B596B0002409A89A
:101C20001C21CDE91444CDE91244CDE91044FEF75E
:101C300080FA01A82021FEF77CFA9848E74A0121A2
:101C40004FF6FF73C0E90021C0E90243C0E9044434
:101C50008461FFF74BFA08B1FEF793FC4FF4805014
:101C600012A912908D48FFF7E1FA08B1FEF789FC3E
:101C70008A48FFF781FC08B1FEF783FC87480024FF
:101C800010A9CDE91044FFF701FA08B1FEF779FC7D
:101C90004FF4167009A900220A90302009900820FC
:101CA0000B94CDE90C047D48CDE90E44FFF728FCE8
:101CB00008B1FEF766FC01AC14212046FEF739FAA4
:101CC0000020214608904FF4005006907348FFF71B
:101CD000B5F908B1FEF755FC7048FFF7EBFB16B0FD
:101CE00010BD00BFFEB57048002140F2E73C4FF048
:101CF000804341F6FF02CDE90411CDE90211816173
:101D0000C0E90032C0E9021C0161CDE90011FFF712
:101D1000EDF908B1FEF735FC4FF4805002A90290AE
:101D2000F148FFF783FA08B1FEF72BFC0020694663
:101D3000CDE90000EC48FFF7A9F908B1FEF721FC56
:101D400006B080BD80B50C480C4A4FF461210023D9
:101D50004FF00C0CC0E90021C0E90233C0E9043C9B
:101D6000C0E90633FFF79CFD002814BFBDE88040A2
:101D700080BDFEF706BC00BF800100200038014096
:101D800080B50C480C4A4FF4165100234FF00C0C50
:101D9000C0E90021C0E90233C0E9043CC0E90633D0
:101DA000FFF77EFD002814BFBDE8804080BDFEF730
:101DB000E8BB00BFC001002000440040FEE7FEE792
:101DC00070477047FEF7F4BD70B590B006AC1821AF
:101DD000201DFEF7AEF901A81421FEF7AAF9012093
:101DE000022500260A90102006950B904FF46010F3
:101DF0000D950E960F902046FEF758FF18B1EFF3A1
:101E0000108072B6FEE70F20022101904FF480602F
:101E10000396CDE9040601A80295FEF769FE18B104
:101E2000EFF3108072B6FEE710B070BD704700008F
:101E300080B50548064B0A210122D0F800C00348AE
:101E4000E0470449087080BD24000020D80000202D
:101E50000D2A00080002002080B507484FF4807169
:101E6000FEF798FD18B1BDE88040FFF783BEBDE8DE
:101E70008040FFF785BE00BF000C01409B48FFF784
:101E80005EBA00BF9948FFF75ABA00BF9748FFF7FC
:101E900056BA00BF9548FFF752BA00BFF0000020C5
:101EA0009148FFF74CBA00BF38010020B0B5036875
:101EB000754DB0F1804F07D0104CA04204D0A8421D
:101EC00002D00F4CA04207D14C6823F45C73CA685F
:101ED00024F44074234313434A6923F08003A84247
:101EE00042EA030202608A68C2620A68826204BF30
:101EF0000969296301214161B0BD00BF00040040B0
:101F00000008004001F01F01012303FA01FC036AED
:101F100002FA01F123EA0C030362026A114301622F
:101F20007047000070B5026A22F001020262026A84
:101F3000D0F804E0D0F818C08C680B6822F00202D8
:101F400022432CF0730444EA030C4F4B98420CD10B
:101F5000CE68D1E905452EF4407322F00C022343EC
:101F600043EA050E26F004031A43C0F804E0C0F863
:101F700018C049684163026270BD00BF70B5026A53
:101F800022F010020262026AD0F804E0D0F818C011
:101F90008C680B6822F0200242EA04122CF4E6441A
:101FA00044EA032C384B98420FD1CE68D1E905455D
:101FB0002EF4406322F0C00243EA840343EA850E14
:101FC0006FF04F0303EA06131A43C0F804E0C0F8A9
:101FD00018C049688163026270BD00BF002C0140D7
:101FE00070B5026A22F480720262026AD0F804E0DC
:101FF000D0F81CC08C680B6822F4007242EA0422FC
:102000002CF0730444EA030C1F4B98420FD1CE68A6
:10201000D1E905452EF4405322F4406243EA04130B
:1020200040F2FF4443EA051E3302A3431A43C0F8BB
:1020300004E0C0F81CC04968C163026270BD00BF03
:10204000B0B5026A22F480520262026AD0F804E05B
:10205000C5698B680C6822F4005242EA033C0A4BC3
:1020600025F4E64242EA0422984204D14B692EF458
:10207000804545EA831EC0F804E0C26149680164F6
:10208000C0F820C0B0BD00BF002C0140D0F820C077
:10209000036A23F001030362836923F0F00343EA38
:1020A000021282612CF00A02114301627047036A36
:1020B00023F010030362836923F4704343EA02327E
:1020C000036A826123F0A00242EA011101627047B3
:1020D00080B50548FFF77EF80448FFF77BF8BDE8B8
:1020E0008040FFF7A5BE00BF38010020F0000020AF
:1020F000406A0021C185C184FFF71DBB0168CA6821
:1021000022F49072CA604A6922F001024A612021D9
:1021100080F83A10704790F83A10222918BF70479B
:102120008268B2F5805F03D1016979B1816A05E007
:10213000816A0AB902690AB17F2200E0FF220368BE
:102140005B681A400A700122816A06E00268816AAF
:1021500052686FF35F220A80022211444FF6FF7229
:102160008162C18D01391142C18500D0704701687B
:10217000CA6822F02002CA60CA6822F48072CA606B
:102180004A6922F001024A61202180F83A10FFF7E3
:102190004DBC000010B5044620680169E26821F4D6
:1021A0004051114341F20C620161D4F808C0D4E9F6
:1021B00004E3C16891434EEA0C021A431143C16023
:1021C0004169A26921F4407111434161114988427A
:1021D00002D0FEF727FD01E0FEF72EFD192148434E
:1021E000D4E900126FF063049200B0FBF2F06422B5
:1021F000B0FBF2F303FB0400322404EB0010B0FB4D
:10220000F2F000F0F00200F00F0002EB03121043B6
:10221000886010BD003801402DE9F0411D46904610
:102220000F4604466E1C206801683940B9421BD035
:10223000002EF8D035B1FEF7B7FBA0EB0800A8429E
:10224000F1D92068C16821F4D071C160416921F0E1
:10225000010141612020002184F8390084F8381000
:1022600084F83A00032000E00020C0B2BDE8F0810D
:1022700080B50448FFF760FA0348BDE88040FEF7E8
:1022800085B900BF800100204000002080B50448CF
:10229000FFF752FA0348BDE88040FEF777B900BF68
:1022A000C001002030000020FEE7000080B50A4891
:1022B0000A490BA2992300F01BFD1420002100F015
:1022C000B3FA0B20642100F001FB10206421BDE86B
:1022D000804000F0FBBA00BF24320008373200080B
:1022E000616C6C5F646174615F75706461746500DA
:1022F000006800BA704700002DE9F04F85B06549CD
:10230000014491F82220082A14D8DFE802F00520C1
:1023100062B3B3B36EB3B6006948012201780029F5
:1023200011BF01200121017000205A4981F84400A9
:10233000002054E02B2A00F0A5802D2A40F09A803E
:1023400001F1250005B0BDE8F04F00F0E9BA534CAB
:10235000534F2046B847534E82B200202146B04723
:10236000514D04462846B847E1B282B20846294694
:10237000B0474E4D04462846B847E1B282B20846FF
:102380002946B0474A4D04462846B847E1B282B2D2
:1023900008462946B047474D04462846B847E1B2AB
:1023A00082B208462946B047434D04462846B847FE
:1023B000E1B282B208462946B047404D044628465D
:1023C000B847E1B282B208462946B047C2B20120FE
:1023D00005E030490E200222A1F84400022003212A
:1023E00005B0BDE8F04F00F051BC91F8232091F802
:1023F000243025310630284D43EA0222039202910F
:102400000190002032E0019822494FF00009304449
:10241000084490F8211090F8220040EA0127029821
:1024200000EB0608845D98F8020098F801B098F86F
:1024300003A0049000F073F901E009F101095FFACB
:1024400089F1814203D215F81120A242F5D105EBA2
:1024500041004078834507D1049808F104014AEA15
:102460000022204600F02EF8F019043086B20398BE
:102470008642C8D305B0BDE8F08F05B0BDE8F04F87
:10248000FFF714BF91F8250005B0BDE8F04F00F04C
:1024900049B900BF60000020F43100084D32000847
:1024A000BB290008112A00086B32000854320008CA
:1024B0005C32000864320008623200087C32000896
:1024C000EC00002070B5013814460D46132800F2C8
:1024D000BB80DFE800F00A3857B9101920787FB9BF
:1024E000B9B9B9B9B9B9B9869627012029462246A2
:1024F00000F0D0F9A4E02846214600F00DFA01468C
:10250000052000F0ADF99BE02846214600F002FAD4
:102510000146062092E02846214600F0FBF90146DC
:1025200007208BE04C484D494DA240F2062300F0B5
:10253000DFFB2846214600F0EDF90446002C75D05B
:10254000FFF71EFB74E02846214600F0E3F904463D
:102550003CB15948D0E90010884277DA204600F0B3
:102560006BFA0220214600F05FF9012859D1524848
:10257000D0E9001201324260881A6422504390FB75
:10258000F1F11BE02846214600F0C8F94A4D044607
:10259000D5E90001814246DAE0B200F04DFA0320AD
:1025A000214600F093F901283BD1D5E900016422CE
:1025B00021446960411A514391FBF0F1102000F071
:1025C00085F9012640E02846214600F0A3F901469E
:1025D000082033E02846214600F09CF901460920F6
:1025E0002CE01D481D492CA240F2C71300F080FBCF
:1025F0002846214600F092F90146122000F066F9C3
:102600001EE0154815491DA24FF4F37300F070FB4E
:102610002846214600F07EF904465CB1FFF7A4FA93
:102620000AE0002610E00026032011E0FFF7A2FADE
:10263000142002E0FFF792FA1320214600F0F4F88C
:102640000138B0FA80F04609F0B270BD00260220D1
:10265000002100F0E9F8F7E72432000837320008DB
:1026600064705F646F776E6C6F61645F73776974B9
:1026700063685F68616E646C6500000064705F642D
:102680006F776E6C6F61645F6C696768745F6861B7
:102690006E646C650000000064705F646F776E6C40
:1026A0006F61645F766F6963655F74696D65735FA1
:1026B00068616E646C65000018000020E0B50D21B3
:1026C0000A2801908DF8031007D109480DF1030184
:1026D00001224FF6FF73FFF7E3F9054801A9012234
:1026E0004FF6FF73FFF7DCF9019802B080BD00BF21
:1026F0008001002080B54FF0000E4FF0000C1FFA53
:102700008EF38B4224BF5FFA8CF080BD10F8012B52
:102710005FFA8CF30EF1010E02EB030CEFE71420CD
:1027200070470000014601A000F0E2BA6765745FDF
:10273000776966695F7374617475733D25640D0A0A
:1027400000000000B0B527480025041D0BE06079AB
:1027500048B1D4E9020101308842A06003D3A560EA
:10276000206900B180472468002CF0D1B0BD00BFC3
:1027700010B542711B4A4FF0000E92F800C00CF1E8
:102780000104147080F804C0C0E902E10361C0F8DC
:1027900000E052F8041F09B904E011460A68002A53
:1027A000FBD10A461060604610BD00BF0D490431E0
:1027B000096839B10A798242FAD100208860012083
:1027C000487170470020704706490431096831B1EB
:1027D0000A798242FAD10020487101207047002016
:1027E000704700BF5000002080B5FEF7E7F8FFF704
:1027F000EBFAFFF7CBF9FFF70FFAFFF773FAFFF7E2
:10280000A1FAFFF7BDFAFFF763FC00F031F9FDF71D
:1028100015FF00F073F957484FF480510122FEF77D
:10282000BEF800F07DF9FCE7B0B50C460146BB48A8
:102830000078012812D0364D0020A8470121A84772
:102840000021A8470121A847002C18BF01242146D8
:10285000A84702460720032100F018FA0120B0BD66
:10286000B0B50C460146AD48007801280FD0284D80
:102870000020A8470421A8470021A8470121A84714
:102880002146A84702460720032100F0FFF9012056
:10289000B0BD00BF70B50D460146A0481446007893
:1028A000012811D01A4E0020B0470021B047210A5C
:1028B000B047E1B2B0472946224600F0A9F80246E7
:1028C0000720032100F0E2F9012070BDB0B50C46ED
:1028D000014692480078012817D00D4D0020A847E6
:1028E0000221A8470021A8470421A847210EA84794
:1028F000C4F30741A847C4F30721A847E1B2A8479A
:1029000002460720032100F0C1F90120B0BD00BF3D
:10291000292A00080078704700787047FFF7E8BC64
:1029200070B504462078012800D170BD012605A5A8
:10293000072E08BF70BDA15D284600F0D9F9013609
:10294000F6E700BF253032582D000000084800216E
:10295000FEF79ABE80B506480021FEF73BFE05480B
:102960004FF480410122BDE88040FEF718B800BF57
:10297000F0000020000C01400023E0B1D9B18842F2
:1029800002D98B18834213D24FF0000C05E011F8E6
:102990000C3000F80C300CF1010C6245F7D109E065
:1029A0008B1800EB020C013A13F8013C0CF8013CC7
:1029B000002AF5D10346184670470146002009B9A0
:1029C00003E001300A5C002AFBD17047F8B50D46E0
:1029D00001460AA0144600F08BF9092C09DC0A4EC6
:1029E000002704E0E95D304600F082F90137A74294
:1029F000F8DB0448BDE8F84000F0CEBB25735B254A
:102A0000645D00001C3200081E320008FFF724BA83
:102A1000B0B50546B548144628444430FFF7ACFF2E
:102A2000601980B2B0BD00BFB04A0244013080B22C
:102A300082F84410704700BF4FF4C8514843024920
:102A40004860FFF787BF00BF10000020A748D0E90B
:102A5000002191420AD000F11F02914224BF00F1EF
:102A6000080141604A1C42600878FFE7C0B2704725
:102A700080B50220FDF7D4FD0A490028086004D083
:102A8000024A02210023FDF7A3FD80BD02020020BF
:102A90000A46014603484FF6FF7300680068FEF7D8
:102AA000FFBF00BFCC020020B0B50C46054604E0D5
:102AB00015F8010B00F004F8013C002CF8D1B0BD72
:102AC000134BDFF854C0DCF800201B68991A012969
:102AD00008BF70479A4203D9D11A162900D9704706
:102AE0000C4B03F117018A4224BFCCF800301A4680
:102AF000511CCCF800101070704700BF0448054905
:102B0000016005480160054800210170704700BF61
:102B10006400002068000020600000200102002006
:102B20002DE9F84F3B4CDFF8F0B0218809E000F0C8
:102B3000D7F850B1FFF78AFF2288511C21800BF88B
:102B4000020088B21E28F2D904E02188072938BF84
:102B5000BDE8F88F8AB231A05946FFF737FF00254C
:102B60000FF2C00940E01BF8070055282FD10BEBEE
:102B700007067078AA282AD1BD1C1BF8050098BB4F
:102B80003079717941EA002000F1070A1FFA8AF5CD
:102B9000272D28D2484629463B4600F0A9F8208830
:102BA000C01BA84225DB4FF6FF7050441FFA80FA85
:102BB00030465146FFF79EFD3D44A5F101081BF844
:102BC0000810884205D13846FFF796FB0CE0013526
:102BD0000AE030465146FFF78DFD1BF808200146FC
:102BE0001AA000F085F8FD1C2288AFB2D01B072880
:102BF000B9DA208081B21FA03A4600F079F8228825
:102C000032B10BEB07015846BDE8F84FFFF7B4BEF1
:102C1000BDE8F88FD00200207F000020737461723D
:102C2000743A000072785F76616C75655F6C656EF2
:102C30003D25642072785F696E3D2564206F66666D
:102C40007365743D25640D0A000000006372632003
:102C50006572726F7220286372633A30782558204B
:102C60002062757420646174613A30782558290DAA
:102C70000A00000072785F696E3D2564206F666609
:102C80007365743D25640D0A00000000B0B5DFF8DF
:102C90005CC05524634603F83E4FAA245C709970CB
:102CA000D870100A00241871901D5A71073291B221
:102CB00080B2A1F1010E04E013F8015BE4B2013827
:102CC0002C440028F8D10CEB0E0080F83E40100494
:102CD00008BFB0BD0CF13E00BDE8B040FFF7D8BE64
:102CE000024803C8401A18BF012070476000002046
:102CF0000FB4054B10B503A9044A029800F018F868
:102D000010BC5DF814FB0000BD2600080000002088
:102D100002E008C8121F08C1002AFAD170477047A4
:102D2000002001E001C1121F002AFBD17047000002
:102D30002DE9FF4F8DB00F460546002606E02528F9
:102D40000BD0DDE90F1290476D1C761C2878002807
:102D5000F5D111B03046BDE8F08F0024A246A1465F
:102D60000122EC4900E0044315F8013F203B02FA40
:102D700003F00842F7D128782A2810D06FF02F02EC
:102D80002878A0F13001092914D80AEB8A0102EB56
:102D9000410144F0020400EB010A6D1CF0E701CF91
:102DA0005FEA000A03D544F40054CAF1000A44F073
:102DB00002046D1C28782E2817D115F8010F44F055
:102DC00004042A280ED06FF02F022878A0F13001D9
:102DD00009290AD809EB890102EB410100EB01093D
:102DE0006D1CF2E757F8049B6D1C28786C280FD0F7
:102DF00006DC4C2817D068280DD06A2814D104E0CE
:102E0000742810D07A280FD10DE044F400140AE0A1
:102E100044F4801401E044F440146978814202D102
:102E200004F580146D1C6D1C2A786E2A1FD00CDCF2
:102E3000632A31D004DC002A8BD0582A11D1A3E0B8
:102E4000642A68D0692A0CD165E0732A2ED004DC8C
:102E50006F2A73D0702A04D19BE0752A6FD0782A2C
:102E60006ED01046DDE90F129047761C50E1C4F396
:102E70000250022806D0032809D0042801CF09D027
:102E8000066045E101CFF117C0E9006140E101CFE3
:102E900006803DE106703BE117F8040B8DF8000059
:102EA00000208DF80100EB46012003E057F804BB39
:102EB0004FF0FF3061074FF0000102D40DE008F140
:102EC0000101884649450FDA8045F8DB1BF80810F8
:102ED0000029F4D108E008F1010188468142FADBBB
:102EE0001BF808100029F6D1DDE90F23AAEB080032
:102EF0008146214600F036F9304400EB080604E034
:102F0000DDE90F121BF8010B9047B8F10108F7D269
:102F100021464846F7E00A21C4F302534FF0000B64
:102F20000891022B04D001CFC117032B09D00AE06E
:102F3000FF1D27F00707F7E8020108E032E01FE075
:102F400020E000B2C117042B01D140B2C117031E0B
:102F500071F1000307DA4FF0000CD0EB0C006CEBC2
:102F600001012D2302E0230504D52B238DF8243005
:102F7000012303E0E30701D02023F7E7984658E058
:102F80000A2110E010210EE010204FF0000B0890F5
:102F90000CE010214FF0000B44F004044FF008093E
:102FA000089103E008214FF0000B0891C4F302538D
:102FB000022B04D001CF0021032B06D006E0FF1D19
:102FC00027F00707F7E8020103E080B2042B00D1E5
:102FD000C0B24FF0000823072BD5702A07D0DDF8C8
:102FE00020C08CF0100C5CEA0B0C05D00EE04023E6
:102FF0008DF82430012308E050EA010306D0302385
:103000008DF824308DF8252002239846DDF820C065
:103010008CF0080C5CEA0B0C0BD150EA010301D1D7
:10302000630706D530238DF824304FF00108A9F14D
:103030000109582A04D038A20B9208AA0A920BE080
:103040003AA2F9E75B46089AFDF7F1F90B9B9B5C06
:103050000A9A521E0A92137050EA0102F2D10A989B
:10306000ADEB000000F1200B600702D524F48034A2
:1030700001E04FF00109D94502DDA9EB0B0000E0AA
:10308000002000EB0B0141440890AAEB010AE00389
:1030900006D4DDE90F232146504600F063F80644CC
:1030A0004FF0000908E009A911F80900DDE90F1245
:1030B000904709F10109761CC145F4DBE0030CD50A
:1030C000DDE90F232146504600F04CF8064404E0A9
:1030D000DDE90F1230209047761C0899481E0890B1
:1030E0000029F5DC08E00A980A990078491C0A9141
:1030F000DDE90F129047761CBBF10001ABF1010B2B
:10310000F1DC21465046DDE90F2300F019F80644B2
:103110006D1C1BE609280100303132333435363757
:103120003839616263646566000000003031323313
:1031300034353637383941424344454600000000B3
:103140002DE9F041044600251E461746880404D4A4
:1031500005E039462020B0476D1C641EF9D528468D
:10316000BDE8F0812DE9F041044600251E46904659
:10317000C80301D5302700E02027880404D505E0E6
:1031800041463846B0476D1C641EF9D52846BDE857
:10319000F081FFF793BA000010B5044601E0FFF795
:1031A0008DFA14F8010B04490028F8D1BDE810404D
:1031B0000A20FFF783BA0000000000200000000092
:1031C00000000000010203040607080900000000D7
:1031D00001020304020000000400000008000000D7
:1031E00010000000FDFFFFFFFBFFFFFFF7FFFFFFE9
:1031F000EFFFFFFF010002010302040405040601C2
:103200000701080109010A040B020C010D040E0557
:103210000F02100211021202130114010D002530D9
:10322000325820000D0A484552452025732020259C
:10323000732025640D0A002E2E2F6D63755F736455
:103240006B2F70726F746F636F6C2E63007B2270D4
:10325000223A2200222C2276223A2200312E302ECF
:1032600030003200222C226D223A006A646A6F6EAE
:103270006C65626663797931626368007D00000085
:10328000A03200080000002030000000102D0008CF
:10329000D032000830000020A8060000202D0008D1
:1032A000000000000100000010000000000000000D
:1032B0005802000000000000320000000000000082
:1032C0000024F40071270008C9270008AD27000872
:04000005080000ED02
:00000001FF
